{
  "contractName": "PharmaSupplyChain",
  "abi": [
    {
      "anonymous": false,
      "inputs": [
        {
          "indexed": false,
          "internalType": "uint256",
          "name": "id",
          "type": "uint256"
        },
        {
          "indexed": false,
          "internalType": "string",
          "name": "name",
          "type": "string"
        },
        {
          "indexed": false,
          "internalType": "address",
          "name": "owner",
          "type": "address"
        }
      ],
      "name": "MedicineAdded",
      "type": "event"
    },
    {
      "anonymous": false,
      "inputs": [
        {
          "indexed": false,
          "internalType": "uint256",
          "name": "id",
          "type": "uint256"
        },
        {
          "indexed": false,
          "internalType": "string",
          "name": "status",
          "type": "string"
        }
      ],
      "name": "StatusUpdated",
      "type": "event"
    },
    {
      "anonymous": false,
      "inputs": [
        {
          "indexed": false,
          "internalType": "uint256",
          "name": "id",
          "type": "uint256"
        },
        {
          "indexed": false,
          "internalType": "string",
          "name": "location",
          "type": "string"
        },
        {
          "indexed": false,
          "internalType": "uint256",
          "name": "timestamp",
          "type": "uint256"
        }
      ],
      "name": "TrackingUpdated",
      "type": "event"
    },
    {
      "inputs": [],
      "name": "medicineCount",
      "outputs": [
        {
          "internalType": "uint256",
          "name": "",
          "type": "uint256"
        }
      ],
      "stateMutability": "view",
      "type": "function",
      "constant": true
    },
    {
      "inputs": [
        {
          "internalType": "uint256",
          "name": "",
          "type": "uint256"
        }
      ],
      "name": "medicines",
      "outputs": [
        {
          "internalType": "uint256",
          "name": "id",
          "type": "uint256"
        },
        {
          "internalType": "string",
          "name": "name",
          "type": "string"
        },
        {
          "internalType": "string",
          "name": "manufacturer",
          "type": "string"
        },
        {
          "internalType": "uint256",
          "name": "mfgDate",
          "type": "uint256"
        },
        {
          "internalType": "uint256",
          "name": "expDate",
          "type": "uint256"
        },
        {
          "internalType": "string",
          "name": "status",
          "type": "string"
        },
        {
          "internalType": "address",
          "name": "owner",
          "type": "address"
        }
      ],
      "stateMutability": "view",
      "type": "function",
      "constant": true
    },
    {
      "inputs": [
        {
          "internalType": "uint256",
          "name": "",
          "type": "uint256"
        },
        {
          "internalType": "uint256",
          "name": "",
          "type": "uint256"
        }
      ],
      "name": "trackingHistory",
      "outputs": [
        {
          "internalType": "string",
          "name": "location",
          "type": "string"
        },
        {
          "internalType": "uint256",
          "name": "timestamp",
          "type": "uint256"
        }
      ],
      "stateMutability": "view",
      "type": "function",
      "constant": true
    },
    {
      "inputs": [
        {
          "internalType": "string",
          "name": "_name",
          "type": "string"
        },
        {
          "internalType": "string",
          "name": "_manufacturer",
          "type": "string"
        },
        {
          "internalType": "uint256",
          "name": "_mfgDate",
          "type": "uint256"
        },
        {
          "internalType": "uint256",
          "name": "_expDate",
          "type": "uint256"
        }
      ],
      "name": "addMedicine",
      "outputs": [],
      "stateMutability": "nonpayable",
      "type": "function"
    },
    {
      "inputs": [
        {
          "internalType": "uint256",
          "name": "_id",
          "type": "uint256"
        },
        {
          "internalType": "string",
          "name": "_status",
          "type": "string"
        }
      ],
      "name": "updateStatus",
      "outputs": [],
      "stateMutability": "nonpayable",
      "type": "function"
    },
    {
      "inputs": [
        {
          "internalType": "uint256",
          "name": "_id",
          "type": "uint256"
        },
        {
          "internalType": "string",
          "name": "_location",
          "type": "string"
        }
      ],
      "name": "addTrackingInfo",
      "outputs": [],
      "stateMutability": "nonpayable",
      "type": "function"
    },
    {
      "inputs": [
        {
          "internalType": "uint256",
          "name": "_id",
          "type": "uint256"
        }
      ],
      "name": "getMedicine",
      "outputs": [
        {
          "internalType": "uint256",
          "name": "",
          "type": "uint256"
        },
        {
          "internalType": "string",
          "name": "",
          "type": "string"
        },
        {
          "internalType": "string",
          "name": "",
          "type": "string"
        },
        {
          "internalType": "uint256",
          "name": "",
          "type": "uint256"
        },
        {
          "internalType": "uint256",
          "name": "",
          "type": "uint256"
        },
        {
          "internalType": "string",
          "name": "",
          "type": "string"
        },
        {
          "internalType": "address",
          "name": "",
          "type": "address"
        }
      ],
      "stateMutability": "view",
      "type": "function",
      "constant": true
    },
    {
      "inputs": [
        {
          "internalType": "uint256",
          "name": "_id",
          "type": "uint256"
        }
      ],
      "name": "getTrackingHistory",
      "outputs": [
        {
          "components": [
            {
              "internalType": "string",
              "name": "location",
              "type": "string"
            },
            {
              "internalType": "uint256",
              "name": "timestamp",
              "type": "uint256"
            }
          ],
          "internalType": "struct PharmaSupplyChain.TrackingInfo[]",
          "name": "",
          "type": "tuple[]"
        }
      ],
      "stateMutability": "view",
      "type": "function",
      "constant": true
    },
    {
      "inputs": [],
      "name": "getAllMedicine",
      "outputs": [
        {
          "internalType": "uint256[]",
          "name": "",
          "type": "uint256[]"
        },
        {
          "internalType": "string[]",
          "name": "",
          "type": "string[]"
        },
        {
          "internalType": "string[]",
          "name": "",
          "type": "string[]"
        },
        {
          "internalType": "uint256[]",
          "name": "",
          "type": "uint256[]"
        },
        {
          "internalType": "uint256[]",
          "name": "",
          "type": "uint256[]"
        },
        {
          "internalType": "string[]",
          "name": "",
          "type": "string[]"
        },
        {
          "internalType": "address[]",
          "name": "",
          "type": "address[]"
        }
      ],
      "stateMutability": "view",
      "type": "function",
      "constant": true
    }
  ],
  "bytecode": "0x608060405234801561001057600080fd5b5061209d806100206000396000f3fe608060405234801561001057600080fd5b50600436106100935760003560e01c8063ae1639cd11610066578063ae1639cd14610124578063c36034e214610148578063c85e766d14610178578063d1b34dd8146101ae578063e097b6b1146101ca57610093565b80632ba25bdc146100985780634dafd490146100b457806398f2988d146100d2578063a6742265146100ee575b600080fd5b6100b260048036038101906100ad9190611651565b6101fb565b005b6100bc61045a565b6040516100c991906116ff565b60405180910390f35b6100ec60048036038101906100e7919061171a565b610460565b005b61010860048036038101906101039190611776565b61056a565b60405161011b979695949392919061186c565b60405180910390f35b61012c61084e565b60405161013f9796959493929190611b78565b60405180910390f35b610162600480360381019061015d9190611776565b610ea1565b60405161016f9190611d17565b60405180910390f35b610192600480360381019061018d9190611776565b611000565b6040516101a5979695949392919061186c565b60405180910390f35b6101c860048036038101906101c3919061171a565b6111fa565b005b6101e460048036038101906101df9190611d39565b611355565b6040516101f2929190611d79565b60405180910390f35b6002600081548092919061020e90611dd8565b91905055506040518060e0016040528060025481526020018581526020018481526020018381526020018281526020016040518060400160405280600c81526020017f4d616e756661637475726564000000000000000000000000000000000000000081525081526020013373ffffffffffffffffffffffffffffffffffffffff1681525060008060025481526020019081526020016000206000820151816000015560208201518160010190805190602001906102cd92919061141e565b5060408201518160020190805190602001906102ea92919061141e565b50606082015181600301556080820151816004015560a082015181600501908051906020019061031b92919061141e565b5060c08201518160060160006101000a81548173ffffffffffffffffffffffffffffffffffffffff021916908373ffffffffffffffffffffffffffffffffffffffff16021790555090505060016000600254815260200190815260200160002060405180604001604052806040518060400160405280600c81526020017f4d616e75666163747572656400000000000000000000000000000000000000008152508152602001428152509080600181540180825580915050600190039060005260206000209060020201600090919091909150600082015181600001908051906020019061040a92919061141e565b506020820151816001015550507f44d8f5ebcb057ea9830fb300af00390bec5fcc3893b2d163deebf9059863bc5d600254853360405161044c93929190611e20565b60405180910390a150505050565b60025481565b60008211801561047257506002548211155b6104b1576040517f08c379a00000000000000000000000000000000000000000000000000000000081526004016104a890611eaa565b60405180910390fd5b600160008381526020019081526020016000206040518060400160405280838152602001428152509080600181540180825580915050600190039060005260206000209060020201600090919091909150600082015181600001908051906020019061051e92919061141e565b506020820151816001015550507f5085deef5ffd2495dfc2f113662719f85da4eb51be0b52ce3847d1a438aee3e282824260405161055e93929190611eca565b60405180910390a15050565b600060608060008060606000808811801561058757506002548811155b6105c6576040517f08c379a00000000000000000000000000000000000000000000000000000000081526004016105bd90611eaa565b60405180910390fd5b60008060008a81526020019081526020016000206040518060e0016040529081600082015481526020016001820180546105ff90611f37565b80601f016020809104026020016040519081016040528092919081815260200182805461062b90611f37565b80156106785780601f1061064d57610100808354040283529160200191610678565b820191906000526020600020905b81548152906001019060200180831161065b57829003601f168201915b5050505050815260200160028201805461069190611f37565b80601f01602080910402602001604051908101604052809291908181526020018280546106bd90611f37565b801561070a5780601f106106df5761010080835404028352916020019161070a565b820191906000526020600020905b8154815290600101906020018083116106ed57829003601f168201915b50505050508152602001600382015481526020016004820154815260200160058201805461073790611f37565b80601f016020809104026020016040519081016040528092919081815260200182805461076390611f37565b80156107b05780601f10610785576101008083540402835291602001916107b0565b820191906000526020600020905b81548152906001019060200180831161079357829003601f168201915b505050505081526020016006820160009054906101000a900473ffffffffffffffffffffffffffffffffffffffff1673ffffffffffffffffffffffffffffffffffffffff1673ffffffffffffffffffffffffffffffffffffffff16815250509050806000015181602001518260400151836060015184608001518560a001518660c00151975097509750975097509750975050919395979092949650565b6060806060806060806060600060025467ffffffffffffffff811115610877576108766114f0565b5b6040519080825280602002602001820160405280156108a55781602001602082028036833780820191505090505b509050600060025467ffffffffffffffff8111156108c6576108c56114f0565b5b6040519080825280602002602001820160405280156108f957816020015b60608152602001906001900390816108e45790505b509050600060025467ffffffffffffffff81111561091a576109196114f0565b5b60405190808252806020026020018201604052801561094d57816020015b60608152602001906001900390816109385790505b509050600060025467ffffffffffffffff81111561096e5761096d6114f0565b5b60405190808252806020026020018201604052801561099c5781602001602082028036833780820191505090505b509050600060025467ffffffffffffffff8111156109bd576109bc6114f0565b5b6040519080825280602002602001820160405280156109eb5781602001602082028036833780820191505090505b509050600060025467ffffffffffffffff811115610a0c57610a0b6114f0565b5b604051908082528060200260200182016040528015610a3f57816020015b6060815260200190600190039081610a2a5790505b509050600060025467ffffffffffffffff811115610a6057610a5f6114f0565b5b604051908082528060200260200182016040528015610a8e5781602001602082028036833780820191505090505b5090506000600190505b6002548111610e7b5760008060008381526020019081526020016000206040518060e001604052908160008201548152602001600182018054610ada90611f37565b80601f0160208091040260200160405190810160405280929190818152602001828054610b0690611f37565b8015610b535780601f10610b2857610100808354040283529160200191610b53565b820191906000526020600020905b815481529060010190602001808311610b3657829003601f168201915b50505050508152602001600282018054610b6c90611f37565b80601f0160208091040260200160405190810160405280929190818152602001828054610b9890611f37565b8015610be55780601f10610bba57610100808354040283529160200191610be5565b820191906000526020600020905b815481529060010190602001808311610bc857829003601f168201915b505050505081526020016003820154815260200160048201548152602001600582018054610c1290611f37565b80601f0160208091040260200160405190810160405280929190818152602001828054610c3e90611f37565b8015610c8b5780601f10610c6057610100808354040283529160200191610c8b565b820191906000526020600020905b815481529060010190602001808311610c6e57829003601f168201915b505050505081526020016006820160009054906101000a900473ffffffffffffffffffffffffffffffffffffffff1673ffffffffffffffffffffffffffffffffffffffff1673ffffffffffffffffffffffffffffffffffffffff16815250509050806000015189600184610cff9190611f68565b81518110610d1057610d0f611f9c565b5b602002602001018181525050806020015188600184610d2f9190611f68565b81518110610d4057610d3f611f9c565b5b6020026020010181905250806040015187600184610d5e9190611f68565b81518110610d6f57610d6e611f9c565b5b6020026020010181905250806060015186600184610d8d9190611f68565b81518110610d9e57610d9d611f9c565b5b602002602001018181525050806080015185600184610dbd9190611f68565b81518110610dce57610dcd611f9c565b5b6020026020010181815250508060a0015184600184610ded9190611f68565b81518110610dfe57610dfd611f9c565b5b60200260200101819052508060c0015183600184610e1c9190611f68565b81518110610e2d57610e2c611f9c565b5b602002602001019073ffffffffffffffffffffffffffffffffffffffff16908173ffffffffffffffffffffffffffffffffffffffff1681525050508080610e7390611dd8565b915050610a98565b50868686868686869d509d509d509d509d509d509d505050505050505090919293949596565b6060600082118015610eb557506002548211155b610ef4576040517f08c379a0000000000000000000000000000000000000000000000000000000008152600401610eeb90611eaa565b60405180910390fd5b60016000838152602001908152602001600020805480602002602001604051908101604052809291908181526020016000905b82821015610ff55783829060005260206000209060020201604051806040016040529081600082018054610f5a90611f37565b80601f0160208091040260200160405190810160405280929190818152602001828054610f8690611f37565b8015610fd35780601f10610fa857610100808354040283529160200191610fd3565b820191906000526020600020905b815481529060010190602001808311610fb657829003601f168201915b5050505050815260200160018201548152505081526020019060010190610f27565b505050509050919050565b600060205280600052604060002060009150905080600001549080600101805461102990611f37565b80601f016020809104026020016040519081016040528092919081815260200182805461105590611f37565b80156110a25780601f10611077576101008083540402835291602001916110a2565b820191906000526020600020905b81548152906001019060200180831161108557829003601f168201915b5050505050908060020180546110b790611f37565b80601f01602080910402602001604051908101604052809291908181526020018280546110e390611f37565b80156111305780601f1061110557610100808354040283529160200191611130565b820191906000526020600020905b81548152906001019060200180831161111357829003601f168201915b50505050509080600301549080600401549080600501805461115190611f37565b80601f016020809104026020016040519081016040528092919081815260200182805461117d90611f37565b80156111ca5780601f1061119f576101008083540402835291602001916111ca565b820191906000526020600020905b8154815290600101906020018083116111ad57829003601f168201915b5050505050908060060160009054906101000a900473ffffffffffffffffffffffffffffffffffffffff16905087565b60008211801561120c57506002548211155b61124b576040517f08c379a000000000000000000000000000000000000000000000000000000000815260040161124290611eaa565b60405180910390fd5b60008083815260200190815260200160002060060160009054906101000a900473ffffffffffffffffffffffffffffffffffffffff1673ffffffffffffffffffffffffffffffffffffffff163373ffffffffffffffffffffffffffffffffffffffff16146112ee576040517f08c379a00000000000000000000000000000000000000000000000000000000081526004016112e590612017565b60405180910390fd5b80600080848152602001908152602001600020600501908051906020019061131792919061141e565b507fdc280875b120650ffe3edf5f724f07fd086361a32c2a387fe34b495f5679e77d8282604051611349929190612037565b60405180910390a15050565b6001602052816000526040600020818154811061137157600080fd5b90600052602060002090600202016000915091505080600001805461139590611f37565b80601f01602080910402602001604051908101604052809291908181526020018280546113c190611f37565b801561140e5780601f106113e35761010080835404028352916020019161140e565b820191906000526020600020905b8154815290600101906020018083116113f157829003601f168201915b5050505050908060010154905082565b82805461142a90611f37565b90600052602060002090601f01602090048101928261144c5760008555611493565b82601f1061146557805160ff1916838001178555611493565b82800160010185558215611493579182015b82811115611492578251825591602001919060010190611477565b5b5090506114a091906114a4565b5090565b5b808211156114bd5760008160009055506001016114a5565b5090565b6000604051905090565b600080fd5b600080fd5b600080fd5b600080fd5b6000601f19601f8301169050919050565b7f4e487b7100000000000000000000000000000000000000000000000000000000600052604160045260246000fd5b611528826114df565b810181811067ffffffffffffffff82111715611547576115466114f0565b5b80604052505050565b600061155a6114c1565b9050611566828261151f565b919050565b600067ffffffffffffffff821115611586576115856114f0565b5b61158f826114df565b9050602081019050919050565b82818337600083830152505050565b60006115be6115b98461156b565b611550565b9050828152602081018484840111156115da576115d96114da565b5b6115e584828561159c565b509392505050565b600082601f830112611602576116016114d5565b5b81356116128482602086016115ab565b91505092915050565b6000819050919050565b61162e8161161b565b811461163957600080fd5b50565b60008135905061164b81611625565b92915050565b6000806000806080858703121561166b5761166a6114cb565b5b600085013567ffffffffffffffff811115611689576116886114d0565b5b611695878288016115ed565b945050602085013567ffffffffffffffff8111156116b6576116b56114d0565b5b6116c2878288016115ed565b93505060406116d38782880161163c565b92505060606116e48782880161163c565b91505092959194509250565b6116f98161161b565b82525050565b600060208201905061171460008301846116f0565b92915050565b60008060408385031215611731576117306114cb565b5b600061173f8582860161163c565b925050602083013567ffffffffffffffff8111156117605761175f6114d0565b5b61176c858286016115ed565b9150509250929050565b60006020828403121561178c5761178b6114cb565b5b600061179a8482850161163c565b91505092915050565b600081519050919050565b600082825260208201905092915050565b60005b838110156117dd5780820151818401526020810190506117c2565b838111156117ec576000848401525b50505050565b60006117fd826117a3565b61180781856117ae565b93506118178185602086016117bf565b611820816114df565b840191505092915050565b600073ffffffffffffffffffffffffffffffffffffffff82169050919050565b60006118568261182b565b9050919050565b6118668161184b565b82525050565b600060e082019050611881600083018a6116f0565b818103602083015261189381896117f2565b905081810360408301526118a781886117f2565b90506118b660608301876116f0565b6118c360808301866116f0565b81810360a08301526118d581856117f2565b90506118e460c083018461185d565b98975050505050505050565b600081519050919050565b600082825260208201905092915050565b6000819050602082019050919050565b6119258161161b565b82525050565b6000611937838361191c565b60208301905092915050565b6000602082019050919050565b600061195b826118f0565b61196581856118fb565b93506119708361190c565b8060005b838110156119a1578151611988888261192b565b975061199383611943565b925050600181019050611974565b5085935050505092915050565b600081519050919050565b600082825260208201905092915050565b6000819050602082019050919050565b600082825260208201905092915050565b60006119f6826117a3565b611a0081856119da565b9350611a108185602086016117bf565b611a19816114df565b840191505092915050565b6000611a3083836119eb565b905092915050565b6000602082019050919050565b6000611a50826119ae565b611a5a81856119b9565b935083602082028501611a6c856119ca565b8060005b85811015611aa85784840389528151611a898582611a24565b9450611a9483611a38565b925060208a01995050600181019050611a70565b50829750879550505050505092915050565b600081519050919050565b600082825260208201905092915050565b6000819050602082019050919050565b611aef8161184b565b82525050565b6000611b018383611ae6565b60208301905092915050565b6000602082019050919050565b6000611b2582611aba565b611b2f8185611ac5565b9350611b3a83611ad6565b8060005b83811015611b6b578151611b528882611af5565b9750611b5d83611b0d565b925050600181019050611b3e565b5085935050505092915050565b600060e0820190508181036000830152611b92818a611950565b90508181036020830152611ba68189611a45565b90508181036040830152611bba8188611a45565b90508181036060830152611bce8187611950565b90508181036080830152611be28186611950565b905081810360a0830152611bf68185611a45565b905081810360c0830152611c0a8184611b1a565b905098975050505050505050565b600081519050919050565b600082825260208201905092915050565b6000819050602082019050919050565b60006040830160008301518482036000860152611c6182826119eb565b9150506020830151611c76602086018261191c565b508091505092915050565b6000611c8d8383611c44565b905092915050565b6000602082019050919050565b6000611cad82611c18565b611cb78185611c23565b935083602082028501611cc985611c34565b8060005b85811015611d055784840389528151611ce68582611c81565b9450611cf183611c95565b925060208a01995050600181019050611ccd565b50829750879550505050505092915050565b60006020820190508181036000830152611d318184611ca2565b905092915050565b60008060408385031215611d5057611d4f6114cb565b5b6000611d5e8582860161163c565b9250506020611d6f8582860161163c565b9150509250929050565b60006040820190508181036000830152611d9381856117f2565b9050611da260208301846116f0565b9392505050565b7f4e487b7100000000000000000000000000000000000000000000000000000000600052601160045260246000fd5b6000611de38261161b565b91507fffffffffffffffffffffffffffffffffffffffffffffffffffffffffffffffff8203611e1557611e14611da9565b5b600182019050919050565b6000606082019050611e3560008301866116f0565b8181036020830152611e4781856117f2565b9050611e56604083018461185d565b949350505050565b7f496e76616c6964206d65646963696e6520494400000000000000000000000000600082015250565b6000611e946013836117ae565b9150611e9f82611e5e565b602082019050919050565b60006020820190508181036000830152611ec381611e87565b9050919050565b6000606082019050611edf60008301866116f0565b8181036020830152611ef181856117f2565b9050611f0060408301846116f0565b949350505050565b7f4e487b7100000000000000000000000000000000000000000000000000000000600052602260045260246000fd5b60006002820490506001821680611f4f57607f821691505b602082108103611f6257611f61611f08565b5b50919050565b6000611f738261161b565b9150611f7e8361161b565b925082821015611f9157611f90611da9565b5b828203905092915050565b7f4e487b7100000000000000000000000000000000000000000000000000000000600052603260045260246000fd5b7f4f6e6c79206f776e65722063616e207570646174652073746174757300000000600082015250565b6000612001601c836117ae565b915061200c82611fcb565b602082019050919050565b6000602082019050818103600083015261203081611ff4565b9050919050565b600060408201905061204c60008301856116f0565b818103602083015261205e81846117f2565b9050939250505056fea26469706673582212206c1ffcac6eedd4d61ca29c3fa94067d7c90fd185ce5dbf889cf30948d105df7664736f6c634300080d0033",
  "immutableReferences": {},
  "source": "// SPDX-License-Identifier: MIT\r\npragma solidity ^0.8.13;\r\n\r\ncontract PharmaSupplyChain {\r\n    // L thuc\r\n    struct Medicine {\r\n        uint id;\r\n        string name;\r\n        string manufacturer;\r\n        uint256 mfgDate;\r\n        uint256 expDate;\r\n        string status;\r\n        address owner;\r\n    }\r\n\r\n    // Thng tin  theo di\r\n    struct TrackingInfo {\r\n        string location;\r\n        uint256 timestamp;\r\n    }\r\n\r\n    // Khai bo mapping lu tr data\r\n    mapping(uint => Medicine) public medicines;\r\n    mapping(uint => TrackingInfo[]) public trackingHistory;\r\n    uint public medicineCount;\r\n\r\n    event MedicineAdded(uint id, string name, address owner);\r\n    event StatusUpdated(uint id, string status);\r\n    event TrackingUpdated(uint id, string location, uint256 timestamp);\r\n\r\n    function addMedicine(\r\n        string memory _name,\r\n        string memory _manufacturer,\r\n        uint256 _mfgDate,\r\n        uint256 _expDate\r\n    ) public {\r\n        medicineCount++;\r\n        medicines[medicineCount] = Medicine(\r\n            medicineCount, \r\n            _name, \r\n            _manufacturer, \r\n            _mfgDate, \r\n            _expDate, \r\n            \"Manufactured\", \r\n            msg.sender\r\n        );\r\n        \r\n        trackingHistory[medicineCount].push(TrackingInfo(\"Manufactured\", block.timestamp));\r\n\r\n        emit MedicineAdded(medicineCount, _name, msg.sender);\r\n    }\r\n\r\n    function updateStatus(uint _id, string memory _status) public {\r\n        require(_id > 0 && _id <= medicineCount, \"Invalid medicine ID\");\r\n        require(msg.sender == medicines[_id].owner, \"Only owner can update status\");\r\n\r\n        medicines[_id].status = _status;\r\n        emit StatusUpdated(_id, _status);\r\n    }\r\n\r\n    function addTrackingInfo(uint _id, string memory _location) public {\r\n        require(_id > 0 && _id <= medicineCount, \"Invalid medicine ID\");\r\n\r\n        trackingHistory[_id].push(TrackingInfo(_location, block.timestamp));\r\n        emit TrackingUpdated(_id, _location, block.timestamp);\r\n    }\r\n\r\n    function getMedicine(uint _id) public view returns (\r\n        uint, string memory, string memory, uint256, uint256, string memory, address\r\n    ) {\r\n        require(_id > 0 && _id <= medicineCount, \"Invalid medicine ID\");\r\n\r\n        Medicine memory m = medicines[_id];\r\n        return (m.id, m.name, m.manufacturer, m.mfgDate, m.expDate, m.status, m.owner);\r\n    }\r\n\r\n    function getTrackingHistory(uint _id) public view returns (TrackingInfo[] memory) {\r\n        require(_id > 0 && _id <= medicineCount, \"Invalid medicine ID\");\r\n        return trackingHistory[_id];\r\n    }\r\n\r\n    // Hm mi: Ly danh sch tt c cc l thuc\r\n    function getAllMedicine() public view returns (\r\n        uint[] memory, string[] memory, string[] memory, uint256[] memory, uint256[] memory, string[] memory, address[] memory\r\n    ) {\r\n        uint[] memory ids = new uint[](medicineCount);\r\n        string[] memory names = new string[](medicineCount);\r\n        string[] memory manufacturers = new string[](medicineCount);\r\n        uint256[] memory mfgDates = new uint256[](medicineCount);\r\n        uint256[] memory expDates = new uint256[](medicineCount);\r\n        string[] memory statuses = new string[](medicineCount);\r\n        address[] memory owners = new address[](medicineCount);\r\n\r\n        for (uint i = 1; i <= medicineCount; i++) {\r\n            Medicine memory m = medicines[i];\r\n            ids[i - 1] = m.id;\r\n            names[i - 1] = m.name;\r\n            manufacturers[i - 1] = m.manufacturer;\r\n            mfgDates[i - 1] = m.mfgDate;\r\n            expDates[i - 1] = m.expDate;\r\n            statuses[i - 1] = m.status;\r\n            owners[i - 1] = m.owner;\r\n        }\r\n\r\n        return (ids, names, manufacturers, mfgDates, expDates, statuses, owners);\r\n    }\r\n}\r\n",
  "sourcePath": "D:\\HK2 (2024 - 2025)\\Blockchain\\project\\pharma-supply-chain\\contracts\\PharmaSupplyChain.sol",
  "compiler": {
    "name": "solc",
    "version": "0.8.13+commit.abaa5c0e.Emscripten.clang"
  },
  "schemaVersion": "3.4.7",
  "updatedAt": "2025-02-19T01:43:03.487Z",
  "networkType": "ethereum",
  "devdoc": {
    "kind": "dev",
    "methods": {},
    "version": 1
  },
  "userdoc": {
    "kind": "user",
    "methods": {},
    "version": 1
  }
}