{
  "contractName": "PharmaSupplyChain",
  "abi": [
    {
      "anonymous": false,
      "inputs": [
        {
          "indexed": false,
          "internalType": "string",
          "name": "serialNumber",
          "type": "string"
        },
        {
          "indexed": false,
          "internalType": "enum PharmaSupplyChain.MedicineBoxStatus",
          "name": "status",
          "type": "uint8"
        }
      ],
      "name": "BoxStatusUpdated",
      "type": "event"
    },
    {
      "anonymous": false,
      "inputs": [
        {
          "indexed": false,
          "internalType": "string",
          "name": "serialNumber",
          "type": "string"
        },
        {
          "indexed": false,
          "internalType": "string",
          "name": "distributor",
          "type": "string"
        }
      ],
      "name": "DistributorUpdated",
      "type": "event"
    },
    {
      "anonymous": false,
      "inputs": [
        {
          "indexed": false,
          "internalType": "uint256",
          "name": "batchId",
          "type": "uint256"
        }
      ],
      "name": "MedicineBatchApproved",
      "type": "event"
    },
    {
      "anonymous": false,
      "inputs": [
        {
          "indexed": false,
          "internalType": "uint256",
          "name": "batchId",
          "type": "uint256"
        },
        {
          "indexed": false,
          "internalType": "string",
          "name": "batchName",
          "type": "string"
        },
        {
          "indexed": false,
          "internalType": "string",
          "name": "productionDate",
          "type": "string"
        },
        {
          "indexed": false,
          "internalType": "uint256",
          "name": "quantity",
          "type": "uint256"
        }
      ],
      "name": "MedicineBatchCreated",
      "type": "event"
    },
    {
      "anonymous": false,
      "inputs": [
        {
          "indexed": false,
          "internalType": "string",
          "name": "serialNumber",
          "type": "string"
        },
        {
          "indexed": false,
          "internalType": "uint256",
          "name": "batchId",
          "type": "uint256"
        }
      ],
      "name": "MedicineBoxCreated",
      "type": "event"
    },
    {
      "anonymous": false,
      "inputs": [
        {
          "indexed": false,
          "internalType": "string",
          "name": "serialNumber",
          "type": "string"
        }
      ],
      "name": "ProductionBoxApproved",
      "type": "event"
    },
    {
      "anonymous": false,
      "inputs": [
        {
          "indexed": false,
          "internalType": "string",
          "name": "serialNumber",
          "type": "string"
        }
      ],
      "name": "TransportBoxApproved",
      "type": "event"
    },
    {
      "inputs": [
        {
          "internalType": "uint256",
          "name": "",
          "type": "uint256"
        }
      ],
      "name": "medicineBatches",
      "outputs": [
        {
          "internalType": "uint256",
          "name": "batchId",
          "type": "uint256"
        },
        {
          "internalType": "string",
          "name": "batchName",
          "type": "string"
        },
        {
          "internalType": "string",
          "name": "productionDate",
          "type": "string"
        },
        {
          "internalType": "uint256",
          "name": "quantity",
          "type": "uint256"
        },
        {
          "internalType": "string",
          "name": "supplier",
          "type": "string"
        },
        {
          "internalType": "string",
          "name": "approvedBy",
          "type": "string"
        },
        {
          "internalType": "enum PharmaSupplyChain.BatchStatus",
          "name": "status",
          "type": "uint8"
        }
      ],
      "stateMutability": "view",
      "type": "function",
      "constant": true
    },
    {
      "inputs": [
        {
          "internalType": "string",
          "name": "",
          "type": "string"
        }
      ],
      "name": "medicineBoxes",
      "outputs": [
        {
          "internalType": "string",
          "name": "serialNumber",
          "type": "string"
        },
        {
          "internalType": "uint256",
          "name": "batchId",
          "type": "uint256"
        },
        {
          "internalType": "bool",
          "name": "productionApproved",
          "type": "bool"
        },
        {
          "internalType": "bool",
          "name": "transportApproved",
          "type": "bool"
        },
        {
          "internalType": "string",
          "name": "distributor",
          "type": "string"
        },
        {
          "internalType": "string",
          "name": "pharmacyAddress",
          "type": "string"
        },
        {
          "internalType": "enum PharmaSupplyChain.MedicineBoxStatus",
          "name": "status",
          "type": "uint8"
        },
        {
          "internalType": "string",
          "name": "owner",
          "type": "string"
        },
        {
          "internalType": "string",
          "name": "manufacturer",
          "type": "string"
        },
        {
          "internalType": "string",
          "name": "boxName",
          "type": "string"
        },
        {
          "internalType": "string",
          "name": "manufacturingDate",
          "type": "string"
        },
        {
          "internalType": "string",
          "name": "expirationDate",
          "type": "string"
        }
      ],
      "stateMutability": "view",
      "type": "function",
      "constant": true
    },
    {
      "inputs": [],
      "name": "nextBatchId",
      "outputs": [
        {
          "internalType": "uint256",
          "name": "",
          "type": "uint256"
        }
      ],
      "stateMutability": "view",
      "type": "function",
      "constant": true
    },
    {
      "inputs": [
        {
          "internalType": "uint256",
          "name": "",
          "type": "uint256"
        }
      ],
      "name": "participantAddresses",
      "outputs": [
        {
          "internalType": "address",
          "name": "",
          "type": "address"
        }
      ],
      "stateMutability": "view",
      "type": "function",
      "constant": true
    },
    {
      "inputs": [
        {
          "internalType": "address",
          "name": "",
          "type": "address"
        }
      ],
      "name": "participantRegistered",
      "outputs": [
        {
          "internalType": "bool",
          "name": "",
          "type": "bool"
        }
      ],
      "stateMutability": "view",
      "type": "function",
      "constant": true
    },
    {
      "inputs": [
        {
          "internalType": "address",
          "name": "",
          "type": "address"
        }
      ],
      "name": "participants",
      "outputs": [
        {
          "internalType": "string",
          "name": "name",
          "type": "string"
        },
        {
          "internalType": "string",
          "name": "location",
          "type": "string"
        },
        {
          "internalType": "string",
          "name": "phone",
          "type": "string"
        },
        {
          "internalType": "string",
          "name": "role",
          "type": "string"
        },
        {
          "internalType": "bool",
          "name": "isActive",
          "type": "bool"
        }
      ],
      "stateMutability": "view",
      "type": "function",
      "constant": true
    },
    {
      "inputs": [],
      "name": "getAllParticipantsWithAddress",
      "outputs": [
        {
          "components": [
            {
              "internalType": "address",
              "name": "participantAddress",
              "type": "address"
            },
            {
              "internalType": "string",
              "name": "name",
              "type": "string"
            },
            {
              "internalType": "string",
              "name": "location",
              "type": "string"
            },
            {
              "internalType": "string",
              "name": "phone",
              "type": "string"
            },
            {
              "internalType": "string",
              "name": "role",
              "type": "string"
            },
            {
              "internalType": "bool",
              "name": "isActive",
              "type": "bool"
            }
          ],
          "internalType": "struct PharmaSupplyChain.ParticipantWithAddress[]",
          "name": "",
          "type": "tuple[]"
        }
      ],
      "stateMutability": "view",
      "type": "function",
      "constant": true
    },
    {
      "inputs": [
        {
          "internalType": "address",
          "name": "_participant",
          "type": "address"
        },
        {
          "internalType": "string",
          "name": "_name",
          "type": "string"
        },
        {
          "internalType": "string",
          "name": "_location",
          "type": "string"
        },
        {
          "internalType": "string",
          "name": "_phone",
          "type": "string"
        },
        {
          "internalType": "string",
          "name": "_role",
          "type": "string"
        },
        {
          "internalType": "bool",
          "name": "_isActive",
          "type": "bool"
        }
      ],
      "name": "setParticipant",
      "outputs": [],
      "stateMutability": "nonpayable",
      "type": "function"
    },
    {
      "inputs": [],
      "name": "getParticipants",
      "outputs": [
        {
          "components": [
            {
              "internalType": "string",
              "name": "name",
              "type": "string"
            },
            {
              "internalType": "string",
              "name": "location",
              "type": "string"
            },
            {
              "internalType": "string",
              "name": "phone",
              "type": "string"
            },
            {
              "internalType": "string",
              "name": "role",
              "type": "string"
            },
            {
              "internalType": "bool",
              "name": "isActive",
              "type": "bool"
            }
          ],
          "internalType": "struct PharmaSupplyChain.Participant[]",
          "name": "",
          "type": "tuple[]"
        }
      ],
      "stateMutability": "view",
      "type": "function",
      "constant": true
    },
    {
      "inputs": [
        {
          "internalType": "string",
          "name": "_batchName",
          "type": "string"
        },
        {
          "internalType": "string",
          "name": "_productionDate",
          "type": "string"
        },
        {
          "internalType": "uint256",
          "name": "_quantity",
          "type": "uint256"
        },
        {
          "internalType": "string",
          "name": "_supplier",
          "type": "string"
        },
        {
          "internalType": "string",
          "name": "_approvedBy",
          "type": "string"
        }
      ],
      "name": "createMedicineBatch",
      "outputs": [],
      "stateMutability": "nonpayable",
      "type": "function"
    },
    {
      "inputs": [
        {
          "internalType": "uint256",
          "name": "_batchId",
          "type": "uint256"
        },
        {
          "internalType": "string",
          "name": "_batchName",
          "type": "string"
        },
        {
          "internalType": "string",
          "name": "_productionDate",
          "type": "string"
        },
        {
          "internalType": "uint256",
          "name": "_quantity",
          "type": "uint256"
        }
      ],
      "name": "updateMedicineBatch",
      "outputs": [],
      "stateMutability": "nonpayable",
      "type": "function"
    },
    {
      "inputs": [
        {
          "internalType": "uint256",
          "name": "_batchId",
          "type": "uint256"
        }
      ],
      "name": "deleteMedicineBatch",
      "outputs": [],
      "stateMutability": "nonpayable",
      "type": "function"
    },
    {
      "inputs": [
        {
          "internalType": "uint256",
          "name": "_batchId",
          "type": "uint256"
        },
        {
          "internalType": "string",
          "name": "_approvedBy",
          "type": "string"
        }
      ],
      "name": "approveMedicineBatch",
      "outputs": [],
      "stateMutability": "nonpayable",
      "type": "function"
    },
    {
      "inputs": [
        {
          "internalType": "uint256",
          "name": "_batchId",
          "type": "uint256"
        },
        {
          "internalType": "string",
          "name": "_serialNumber",
          "type": "string"
        },
        {
          "internalType": "string",
          "name": "_boxName",
          "type": "string"
        },
        {
          "internalType": "string",
          "name": "_manufacturingDate",
          "type": "string"
        },
        {
          "internalType": "string",
          "name": "_expirationDate",
          "type": "string"
        },
        {
          "internalType": "string",
          "name": "_manufacturer",
          "type": "string"
        },
        {
          "internalType": "string",
          "name": "_distributor",
          "type": "string"
        },
        {
          "internalType": "string",
          "name": "_pharmacyAddress",
          "type": "string"
        }
      ],
      "name": "createMedicineBox",
      "outputs": [],
      "stateMutability": "nonpayable",
      "type": "function"
    },
    {
      "inputs": [
        {
          "internalType": "string",
          "name": "_serialNumber",
          "type": "string"
        },
        {
          "internalType": "string",
          "name": "_boxName",
          "type": "string"
        },
        {
          "internalType": "string",
          "name": "_manufacturingDate",
          "type": "string"
        },
        {
          "internalType": "string",
          "name": "_expirationDate",
          "type": "string"
        }
      ],
      "name": "updateMedicineBox",
      "outputs": [],
      "stateMutability": "nonpayable",
      "type": "function"
    },
    {
      "inputs": [
        {
          "internalType": "string",
          "name": "_serialNumber",
          "type": "string"
        }
      ],
      "name": "deleteMedicineBox",
      "outputs": [],
      "stateMutability": "nonpayable",
      "type": "function"
    },
    {
      "inputs": [
        {
          "internalType": "string",
          "name": "_serialNumber",
          "type": "string"
        }
      ],
      "name": "approveProductionBox",
      "outputs": [],
      "stateMutability": "nonpayable",
      "type": "function"
    },
    {
      "inputs": [
        {
          "internalType": "string",
          "name": "_serialNumber",
          "type": "string"
        },
        {
          "internalType": "string",
          "name": "_distributor",
          "type": "string"
        },
        {
          "internalType": "string",
          "name": "_owner",
          "type": "string"
        }
      ],
      "name": "updateDistributor",
      "outputs": [],
      "stateMutability": "nonpayable",
      "type": "function"
    },
    {
      "inputs": [
        {
          "internalType": "string",
          "name": "_serialNumber",
          "type": "string"
        }
      ],
      "name": "approveTransportBox",
      "outputs": [],
      "stateMutability": "nonpayable",
      "type": "function"
    },
    {
      "inputs": [
        {
          "internalType": "string",
          "name": "_serialNumber",
          "type": "string"
        },
        {
          "internalType": "enum PharmaSupplyChain.MedicineBoxStatus",
          "name": "_newStatus",
          "type": "uint8"
        }
      ],
      "name": "updateBoxStatusAtPharmacy",
      "outputs": [],
      "stateMutability": "nonpayable",
      "type": "function"
    },
    {
      "inputs": [
        {
          "internalType": "string",
          "name": "_serialNumber",
          "type": "string"
        }
      ],
      "name": "getMedicineBoxDetails",
      "outputs": [
        {
          "components": [
            {
              "internalType": "string",
              "name": "serialNumber",
              "type": "string"
            },
            {
              "internalType": "uint256",
              "name": "batchId",
              "type": "uint256"
            },
            {
              "internalType": "bool",
              "name": "productionApproved",
              "type": "bool"
            },
            {
              "internalType": "bool",
              "name": "transportApproved",
              "type": "bool"
            },
            {
              "internalType": "string",
              "name": "distributor",
              "type": "string"
            },
            {
              "internalType": "string",
              "name": "pharmacyAddress",
              "type": "string"
            },
            {
              "internalType": "uint8",
              "name": "boxStatus",
              "type": "uint8"
            },
            {
              "internalType": "string",
              "name": "owner",
              "type": "string"
            },
            {
              "internalType": "string",
              "name": "manufacturer",
              "type": "string"
            },
            {
              "internalType": "string",
              "name": "boxName",
              "type": "string"
            },
            {
              "internalType": "string",
              "name": "manufacturingDate",
              "type": "string"
            },
            {
              "internalType": "string",
              "name": "expirationDate",
              "type": "string"
            },
            {
              "internalType": "string",
              "name": "batchName",
              "type": "string"
            },
            {
              "internalType": "string",
              "name": "productionDate",
              "type": "string"
            },
            {
              "internalType": "uint256",
              "name": "quantity",
              "type": "uint256"
            },
            {
              "internalType": "string",
              "name": "supplier",
              "type": "string"
            },
            {
              "internalType": "string",
              "name": "approvedBy",
              "type": "string"
            },
            {
              "internalType": "uint8",
              "name": "batchStatus",
              "type": "uint8"
            }
          ],
          "internalType": "struct PharmaSupplyChain.MedicineBoxDetail",
          "name": "",
          "type": "tuple"
        }
      ],
      "stateMutability": "view",
      "type": "function",
      "constant": true
    }
  ],
  "bytecode": "0x6080604052600160045534801561001557600080fd5b50615f4e80620000266000396000f3fe608060405234801561001057600080fd5b50600436106101375760003560e01c80638a4ba385116100b8578063d24a974b1161007c578063d24a974b1461035f578063d30124641461038f578063d54374bc146103ab578063d9b8ca55146103c7578063dc21c37a146103e3578063e94aabb6146103ff57610137565b80638a4ba3851461029a57806390b4d098146102b65780639bf95502146102ec578063b298e87f14610308578063ce6771db1461032457610137565b80635196cb90116100ff5780635196cb90146101f657806354ffbddb146102125780635aa68ac0146102425780637c2447c6146102605780638462a7f81461027c57610137565b806309e69ede1461013c5780631d7333371461017057806325e7ac2c146101a05780633d03c9ba146101bc5780634c143675146101da575b600080fd5b610156600480360381019061015191906142ac565b61041b565b60405161016795949392919061438d565b60405180910390f35b61018a600480360381019061018591906142ac565b61067e565b60405161019791906143fc565b60405180910390f35b6101ba60048036038101906101b59190614582565b61069e565b005b6101c4610b87565b6040516101d191906148c4565b60405180910390f35b6101f460048036038101906101ef91906148e6565b610f7e565b005b610210600480360381019061020b91906148e6565b6111c3565b005b61022c6004803603810190610227919061492f565b611511565b604051610239919061496b565b60405180910390f35b61024a611550565b6040516102579190614ad3565b60405180910390f35b61027a6004803603810190610275919061492f565b6118e3565b005b610284611ba4565b6040516102919190614b04565b60405180910390f35b6102b460048036038101906102af9190614b1f565b611baa565b005b6102d060048036038101906102cb919061492f565b611e35565b6040516102e39796959493929190614c35565b60405180910390f35b61030660048036038101906103019190614ce5565b6120a4565b005b610322600480360381019061031d91906148e6565b6122fb565b005b61033e600480360381019061033991906148e6565b61258a565b6040516103569c9b9a99989796959493929190614d89565b60405180910390f35b610379600480360381019061037491906148e6565b612a67565b6040516103869190615075565b60405180910390f35b6103a960048036038101906103a49190615097565b6133a6565b005b6103c560048036038101906103c0919061513e565b61366b565b005b6103e160048036038101906103dc9190615215565b613908565b005b6103fd60048036038101906103f89190615300565b613bdd565b005b61041960048036038101906104149190615388565b613e30565b005b600060205280600052604060002060009150905080600001805461043e906154b4565b80601f016020809104026020016040519081016040528092919081815260200182805461046a906154b4565b80156104b75780601f1061048c576101008083540402835291602001916104b7565b820191906000526020600020905b81548152906001019060200180831161049a57829003601f168201915b5050505050908060010180546104cc906154b4565b80601f01602080910402602001604051908101604052809291908181526020018280546104f8906154b4565b80156105455780601f1061051a57610100808354040283529160200191610545565b820191906000526020600020905b81548152906001019060200180831161052857829003601f168201915b50505050509080600201805461055a906154b4565b80601f0160208091040260200160405190810160405280929190818152602001828054610586906154b4565b80156105d35780601f106105a8576101008083540402835291602001916105d3565b820191906000526020600020905b8154815290600101906020018083116105b657829003601f168201915b5050505050908060030180546105e8906154b4565b80601f0160208091040260200160405190810160405280929190818152602001828054610614906154b4565b80156106615780601f1061063657610100808354040283529160200191610661565b820191906000526020600020905b81548152906001019060200180831161064457829003601f168201915b5050505050908060040160009054906101000a900460ff16905085565b60026020528060005260406000206000915054906101000a900460ff1681565b6000803373ffffffffffffffffffffffffffffffffffffffff1673ffffffffffffffffffffffffffffffffffffffff16815260200190815260200160002060040160009054906101000a900460ff1661072c576040517f08c379a000000000000000000000000000000000000000000000000000000000815260040161072390615531565b60405180910390fd5b6040518060400160405280600c81526020017f4d414e5546414354555245520000000000000000000000000000000000000000815250805190602001206000803373ffffffffffffffffffffffffffffffffffffffff1673ffffffffffffffffffffffffffffffffffffffff1681526020019081526020016000206003016040516107b791906155f0565b6040518091039020146107ff576040517f08c379a00000000000000000000000000000000000000000000000000000000081526004016107f690615653565b60405180910390fd5b6000600360008a81526020019081526020016000206000015403610858576040517f08c379a000000000000000000000000000000000000000000000000000000000815260040161084f906156bf565b60405180910390fd5b6001600381111561086c5761086b614bbe565b5b600360008a815260200190815260200160002060060160009054906101000a900460ff1660038111156108a2576108a1614bbe565b5b146108e2576040517f08c379a00000000000000000000000000000000000000000000000000000000081526004016108d99061572b565b60405180910390fd5b60006005886040516108f49190615787565b90815260200160405180910390206000018054610910906154b4565b905014610952576040517f08c379a0000000000000000000000000000000000000000000000000000000008152600401610949906157ea565b60405180910390fd5b6040518061018001604052808881526020018981526020016000151581526020016000151581526020018381526020018281526020016000600481111561099c5761099b614bbe565b5b8152602001848152602001848152602001878152602001868152602001858152506005886040516109cd9190615787565b908152602001604051809103902060008201518160000190805190602001906109f7929190614043565b506020820151816001015560408201518160020160006101000a81548160ff02191690831515021790555060608201518160020160016101000a81548160ff0219169083151502179055506080820151816003019080519060200190610a5e929190614043565b5060a0820151816004019080519060200190610a7b929190614043565b5060c08201518160050160006101000a81548160ff02191690836004811115610aa757610aa6614bbe565b5b021790555060e0820151816006019080519060200190610ac8929190614043565b50610100820151816007019080519060200190610ae6929190614043565b50610120820151816008019080519060200190610b04929190614043565b50610140820151816009019080519060200190610b22929190614043565b5061016082015181600a019080519060200190610b40929190614043565b509050507f1997d32ce58e3571b7d07de75a81a2fed8afe557b3ac53560532b4869708b5388789604051610b7592919061580a565b60405180910390a15050505050505050565b60606000600180549050905060008167ffffffffffffffff811115610baf57610bae614457565b5b604051908082528060200260200182016040528015610be857816020015b610bd56140c9565b815260200190600190039081610bcd5790505b50905060005b82811015610f7557600060018281548110610c0c57610c0b61583a565b5b9060005260206000200160009054906101000a900473ffffffffffffffffffffffffffffffffffffffff16905060008060008373ffffffffffffffffffffffffffffffffffffffff1673ffffffffffffffffffffffffffffffffffffffff1681526020019081526020016000206040518060a0016040529081600082018054610c94906154b4565b80601f0160208091040260200160405190810160405280929190818152602001828054610cc0906154b4565b8015610d0d5780601f10610ce257610100808354040283529160200191610d0d565b820191906000526020600020905b815481529060010190602001808311610cf057829003601f168201915b50505050508152602001600182018054610d26906154b4565b80601f0160208091040260200160405190810160405280929190818152602001828054610d52906154b4565b8015610d9f5780601f10610d7457610100808354040283529160200191610d9f565b820191906000526020600020905b815481529060010190602001808311610d8257829003601f168201915b50505050508152602001600282018054610db8906154b4565b80601f0160208091040260200160405190810160405280929190818152602001828054610de4906154b4565b8015610e315780601f10610e0657610100808354040283529160200191610e31565b820191906000526020600020905b815481529060010190602001808311610e1457829003601f168201915b50505050508152602001600382018054610e4a906154b4565b80601f0160208091040260200160405190810160405280929190818152602001828054610e76906154b4565b8015610ec35780601f10610e9857610100808354040283529160200191610ec3565b820191906000526020600020905b815481529060010190602001808311610ea657829003601f168201915b505050505081526020016004820160009054906101000a900460ff16151515158152505090506040518060c001604052808373ffffffffffffffffffffffffffffffffffffffff1681526020018260000151815260200182602001518152602001826040015181526020018260600151815260200182608001511515815250848481518110610f5557610f5461583a565b5b602002602001018190525050508080610f6d90615898565b915050610bee565b50809250505090565b6000803373ffffffffffffffffffffffffffffffffffffffff1673ffffffffffffffffffffffffffffffffffffffff16815260200190815260200160002060040160009054906101000a900460ff1661100c576040517f08c379a000000000000000000000000000000000000000000000000000000000815260040161100390615531565b60405180910390fd5b6040518060400160405280601381526020017f5452414e53504f52545f494e53504543544f5200000000000000000000000000815250805190602001206000803373ffffffffffffffffffffffffffffffffffffffff1673ffffffffffffffffffffffffffffffffffffffff16815260200190815260200160002060030160405161109791906155f0565b6040518091039020146110df576040517f08c379a00000000000000000000000000000000000000000000000000000000081526004016110d69061592c565b60405180910390fd5b60006005826040516110f19190615787565b9081526020016040518091039020600001805461110d906154b4565b90500361114f576040517f08c379a000000000000000000000000000000000000000000000000000000000815260040161114690615998565b60405180910390fd5b60016005826040516111619190615787565b908152602001604051809103902060020160016101000a81548160ff0219169083151502179055507f53328116520672148febbdab09d3767790087c1367615613d31da4b9c864eb82816040516111b891906159b8565b60405180910390a150565b6000803373ffffffffffffffffffffffffffffffffffffffff1673ffffffffffffffffffffffffffffffffffffffff16815260200190815260200160002060040160009054906101000a900460ff16611251576040517f08c379a000000000000000000000000000000000000000000000000000000000815260040161124890615531565b60405180910390fd5b6040518060400160405280600c81526020017f4d414e5546414354555245520000000000000000000000000000000000000000815250805190602001206000803373ffffffffffffffffffffffffffffffffffffffff1673ffffffffffffffffffffffffffffffffffffffff1681526020019081526020016000206003016040516112dc91906155f0565b604051809103902014611324576040517f08c379a000000000000000000000000000000000000000000000000000000000815260040161131b90615653565b60405180910390fd5b60006005826040516113369190615787565b90815260200160405180910390206000018054611352906154b4565b905003611394576040517f08c379a000000000000000000000000000000000000000000000000000000000815260040161138b90615998565b60405180910390fd5b600060048111156113a8576113a7614bbe565b5b6005826040516113b89190615787565b908152602001604051809103902060050160009054906101000a900460ff1660048111156113e9576113e8614bbe565b5b14611429576040517f08c379a000000000000000000000000000000000000000000000000000000000815260040161142090615a4c565b60405180910390fd5b6005816040516114399190615787565b9081526020016040518091039020600080820160006114589190614117565b60018201600090556002820160006101000a81549060ff02191690556002820160016101000a81549060ff02191690556003820160006114989190614117565b6004820160006114a89190614117565b6005820160006101000a81549060ff02191690556006820160006114cc9190614117565b6007820160006114dc9190614117565b6008820160006114ec9190614117565b6009820160006114fc9190614117565b600a8201600061150c9190614117565b505050565b6001818154811061152157600080fd5b906000526020600020016000915054906101000a900473ffffffffffffffffffffffffffffffffffffffff1681565b60606000600180549050905060008167ffffffffffffffff81111561157857611577614457565b5b6040519080825280602002602001820160405280156115b157816020015b61159e614157565b8152602001906001900390816115965790505b50905060005b828110156118da57600080600183815481106115d6576115d561583a565b5b9060005260206000200160009054906101000a900473ffffffffffffffffffffffffffffffffffffffff1673ffffffffffffffffffffffffffffffffffffffff1673ffffffffffffffffffffffffffffffffffffffff1681526020019081526020016000206040518060a0016040529081600082018054611656906154b4565b80601f0160208091040260200160405190810160405280929190818152602001828054611682906154b4565b80156116cf5780601f106116a4576101008083540402835291602001916116cf565b820191906000526020600020905b8154815290600101906020018083116116b257829003601f168201915b505050505081526020016001820180546116e8906154b4565b80601f0160208091040260200160405190810160405280929190818152602001828054611714906154b4565b80156117615780601f1061173657610100808354040283529160200191611761565b820191906000526020600020905b81548152906001019060200180831161174457829003601f168201915b5050505050815260200160028201805461177a906154b4565b80601f01602080910402602001604051908101604052809291908181526020018280546117a6906154b4565b80156117f35780601f106117c8576101008083540402835291602001916117f3565b820191906000526020600020905b8154815290600101906020018083116117d657829003601f168201915b5050505050815260200160038201805461180c906154b4565b80601f0160208091040260200160405190810160405280929190818152602001828054611838906154b4565b80156118855780601f1061185a57610100808354040283529160200191611885565b820191906000526020600020905b81548152906001019060200180831161186857829003601f168201915b505050505081526020016004820160009054906101000a900460ff1615151515815250508282815181106118bc576118bb61583a565b5b602002602001018190525080806118d290615898565b9150506115b7565b50809250505090565b6000803373ffffffffffffffffffffffffffffffffffffffff1673ffffffffffffffffffffffffffffffffffffffff16815260200190815260200160002060040160009054906101000a900460ff16611971576040517f08c379a000000000000000000000000000000000000000000000000000000000815260040161196890615531565b60405180910390fd5b6040518060400160405280600881526020017f535550504c494552000000000000000000000000000000000000000000000000815250805190602001206000803373ffffffffffffffffffffffffffffffffffffffff1673ffffffffffffffffffffffffffffffffffffffff1681526020019081526020016000206003016040516119fc91906155f0565b604051809103902014611a44576040517f08c379a0000000000000000000000000000000000000000000000000000000008152600401611a3b90615ab8565b60405180910390fd5b6000600360008381526020019081526020016000206000015403611a9d576040517f08c379a0000000000000000000000000000000000000000000000000000000008152600401611a94906156bf565b60405180910390fd5b60006003811115611ab157611ab0614bbe565b5b6003600083815260200190815260200160002060060160009054906101000a900460ff166003811115611ae757611ae6614bbe565b5b14611b27576040517f08c379a0000000000000000000000000000000000000000000000000000000008152600401611b1e90615b24565b60405180910390fd5b60036000828152602001908152602001600020600080820160009055600182016000611b539190614117565b600282016000611b639190614117565b6003820160009055600482016000611b7b9190614117565b600582016000611b8b9190614117565b6006820160006101000a81549060ff0219169055505050565b60045481565b6000803373ffffffffffffffffffffffffffffffffffffffff1673ffffffffffffffffffffffffffffffffffffffff16815260200190815260200160002060040160009054906101000a900460ff16611c38576040517f08c379a0000000000000000000000000000000000000000000000000000000008152600401611c2f90615531565b60405180910390fd5b6040518060400160405280600881526020017f535550504c494552000000000000000000000000000000000000000000000000815250805190602001206000803373ffffffffffffffffffffffffffffffffffffffff1673ffffffffffffffffffffffffffffffffffffffff168152602001908152602001600020600301604051611cc391906155f0565b604051809103902014611d0b576040517f08c379a0000000000000000000000000000000000000000000000000000000008152600401611d0290615b90565b60405180910390fd5b6000600360008681526020019081526020016000206000015403611d64576040517f08c379a0000000000000000000000000000000000000000000000000000000008152600401611d5b906156bf565b60405180910390fd5b600060036000868152602001908152602001600020905060006003811115611d8f57611d8e614bbe565b5b8160060160009054906101000a900460ff166003811115611db357611db2614bbe565b5b14611df3576040517f08c379a0000000000000000000000000000000000000000000000000000000008152600401611dea90615bfc565b60405180910390fd5b83816001019080519060200190611e0b929190614043565b5082816002019080519060200190611e24929190614043565b508181600301819055505050505050565b6003602052806000526040600020600091509050806000015490806001018054611e5e906154b4565b80601f0160208091040260200160405190810160405280929190818152602001828054611e8a906154b4565b8015611ed75780601f10611eac57610100808354040283529160200191611ed7565b820191906000526020600020905b815481529060010190602001808311611eba57829003601f168201915b505050505090806002018054611eec906154b4565b80601f0160208091040260200160405190810160405280929190818152602001828054611f18906154b4565b8015611f655780601f10611f3a57610100808354040283529160200191611f65565b820191906000526020600020905b815481529060010190602001808311611f4857829003601f168201915b505050505090806003015490806004018054611f80906154b4565b80601f0160208091040260200160405190810160405280929190818152602001828054611fac906154b4565b8015611ff95780601f10611fce57610100808354040283529160200191611ff9565b820191906000526020600020905b815481529060010190602001808311611fdc57829003601f168201915b50505050509080600501805461200e906154b4565b80601f016020809104026020016040519081016040528092919081815260200182805461203a906154b4565b80156120875780601f1061205c57610100808354040283529160200191612087565b820191906000526020600020905b81548152906001019060200180831161206a57829003601f168201915b5050505050908060060160009054906101000a900460ff16905087565b6000803373ffffffffffffffffffffffffffffffffffffffff1673ffffffffffffffffffffffffffffffffffffffff16815260200190815260200160002060040160009054906101000a900460ff16612132576040517f08c379a000000000000000000000000000000000000000000000000000000000815260040161212990615531565b60405180910390fd5b6040518060400160405280600881526020017f504841524d414359000000000000000000000000000000000000000000000000815250805190602001206000803373ffffffffffffffffffffffffffffffffffffffff1673ffffffffffffffffffffffffffffffffffffffff1681526020019081526020016000206003016040516121bd91906155f0565b604051809103902014612205576040517f08c379a00000000000000000000000000000000000000000000000000000000081526004016121fc90615c68565b60405180910390fd5b60006005836040516122179190615787565b90815260200160405180910390206000018054612233906154b4565b905003612275576040517f08c379a000000000000000000000000000000000000000000000000000000000815260040161226c90615998565b60405180910390fd5b806005836040516122869190615787565b908152602001604051809103902060050160006101000a81548160ff021916908360048111156122b9576122b8614bbe565b5b02179055507f4c0a4d3facab28166bd1c55596a07bb0a00b61821553223addb723b931d11b8d82826040516122ef929190615c88565b60405180910390a15050565b6000803373ffffffffffffffffffffffffffffffffffffffff1673ffffffffffffffffffffffffffffffffffffffff16815260200190815260200160002060040160009054906101000a900460ff16612389576040517f08c379a000000000000000000000000000000000000000000000000000000000815260040161238090615531565b60405180910390fd5b6040518060400160405280600d81526020017f474d505f494e53504543544f5200000000000000000000000000000000000000815250805190602001206000803373ffffffffffffffffffffffffffffffffffffffff1673ffffffffffffffffffffffffffffffffffffffff16815260200190815260200160002060030160405161241491906155f0565b60405180910390201461245c576040517f08c379a000000000000000000000000000000000000000000000000000000000815260040161245390615d04565b60405180910390fd5b600060058260405161246e9190615787565b9081526020016040518091039020600001805461248a906154b4565b9050036124cc576040517f08c379a00000000000000000000000000000000000000000000000000000000081526004016124c390615998565b60405180910390fd5b60016005826040516124de9190615787565b908152602001604051809103902060020160006101000a81548160ff02191690831515021790555060016005826040516125189190615787565b908152602001604051809103902060050160006101000a81548160ff0219169083600481111561254b5761254a614bbe565b5b02179055507ff9ed87d634d80dcc3084e6ac48411e87b12d64c20ad2671974dabb0e7f042e788160405161257f91906159b8565b60405180910390a150565b6005818051602081018201805184825260208301602085012081835280955050505050506000915090508060000180546125c3906154b4565b80601f01602080910402602001604051908101604052809291908181526020018280546125ef906154b4565b801561263c5780601f106126115761010080835404028352916020019161263c565b820191906000526020600020905b81548152906001019060200180831161261f57829003601f168201915b5050505050908060010154908060020160009054906101000a900460ff16908060020160019054906101000a900460ff169080600301805461267d906154b4565b80601f01602080910402602001604051908101604052809291908181526020018280546126a9906154b4565b80156126f65780601f106126cb576101008083540402835291602001916126f6565b820191906000526020600020905b8154815290600101906020018083116126d957829003601f168201915b50505050509080600401805461270b906154b4565b80601f0160208091040260200160405190810160405280929190818152602001828054612737906154b4565b80156127845780601f1061275957610100808354040283529160200191612784565b820191906000526020600020905b81548152906001019060200180831161276757829003601f168201915b5050505050908060050160009054906101000a900460ff16908060060180546127ac906154b4565b80601f01602080910402602001604051908101604052809291908181526020018280546127d8906154b4565b80156128255780601f106127fa57610100808354040283529160200191612825565b820191906000526020600020905b81548152906001019060200180831161280857829003601f168201915b50505050509080600701805461283a906154b4565b80601f0160208091040260200160405190810160405280929190818152602001828054612866906154b4565b80156128b35780601f10612888576101008083540402835291602001916128b3565b820191906000526020600020905b81548152906001019060200180831161289657829003601f168201915b5050505050908060080180546128c8906154b4565b80601f01602080910402602001604051908101604052809291908181526020018280546128f4906154b4565b80156129415780601f1061291657610100808354040283529160200191612941565b820191906000526020600020905b81548152906001019060200180831161292457829003601f168201915b505050505090806009018054612956906154b4565b80601f0160208091040260200160405190810160405280929190818152602001828054612982906154b4565b80156129cf5780601f106129a4576101008083540402835291602001916129cf565b820191906000526020600020905b8154815290600101906020018083116129b257829003601f168201915b50505050509080600a0180546129e4906154b4565b80601f0160208091040260200160405190810160405280929190818152602001828054612a10906154b4565b8015612a5d5780601f10612a3257610100808354040283529160200191612a5d565b820191906000526020600020905b815481529060010190602001808311612a4057829003601f168201915b505050505090508c565b612a6f614188565b6000600583604051612a819190615787565b908152602001604051809103902060405180610180016040529081600082018054612aab906154b4565b80601f0160208091040260200160405190810160405280929190818152602001828054612ad7906154b4565b8015612b245780601f10612af957610100808354040283529160200191612b24565b820191906000526020600020905b815481529060010190602001808311612b0757829003601f168201915b50505050508152602001600182015481526020016002820160009054906101000a900460ff161515151581526020016002820160019054906101000a900460ff16151515158152602001600382018054612b7d906154b4565b80601f0160208091040260200160405190810160405280929190818152602001828054612ba9906154b4565b8015612bf65780601f10612bcb57610100808354040283529160200191612bf6565b820191906000526020600020905b815481529060010190602001808311612bd957829003601f168201915b50505050508152602001600482018054612c0f906154b4565b80601f0160208091040260200160405190810160405280929190818152602001828054612c3b906154b4565b8015612c885780601f10612c5d57610100808354040283529160200191612c88565b820191906000526020600020905b815481529060010190602001808311612c6b57829003601f168201915b505050505081526020016005820160009054906101000a900460ff166004811115612cb657612cb5614bbe565b5b6004811115612cc857612cc7614bbe565b5b8152602001600682018054612cdc906154b4565b80601f0160208091040260200160405190810160405280929190818152602001828054612d08906154b4565b8015612d555780601f10612d2a57610100808354040283529160200191612d55565b820191906000526020600020905b815481529060010190602001808311612d3857829003601f168201915b50505050508152602001600782018054612d6e906154b4565b80601f0160208091040260200160405190810160405280929190818152602001828054612d9a906154b4565b8015612de75780601f10612dbc57610100808354040283529160200191612de7565b820191906000526020600020905b815481529060010190602001808311612dca57829003601f168201915b50505050508152602001600882018054612e00906154b4565b80601f0160208091040260200160405190810160405280929190818152602001828054612e2c906154b4565b8015612e795780601f10612e4e57610100808354040283529160200191612e79565b820191906000526020600020905b815481529060010190602001808311612e5c57829003601f168201915b50505050508152602001600982018054612e92906154b4565b80601f0160208091040260200160405190810160405280929190818152602001828054612ebe906154b4565b8015612f0b5780601f10612ee057610100808354040283529160200191612f0b565b820191906000526020600020905b815481529060010190602001808311612eee57829003601f168201915b50505050508152602001600a82018054612f24906154b4565b80601f0160208091040260200160405190810160405280929190818152602001828054612f50906154b4565b8015612f9d5780601f10612f7257610100808354040283529160200191612f9d565b820191906000526020600020905b815481529060010190602001808311612f8057829003601f168201915b5050505050815250509050600081600001515103612ff0576040517f08c379a0000000000000000000000000000000000000000000000000000000008152600401612fe790615998565b60405180910390fd5b600060036000836020015181526020019081526020016000206040518060e00160405290816000820154815260200160018201805461302e906154b4565b80601f016020809104026020016040519081016040528092919081815260200182805461305a906154b4565b80156130a75780601f1061307c576101008083540402835291602001916130a7565b820191906000526020600020905b81548152906001019060200180831161308a57829003601f168201915b505050505081526020016002820180546130c0906154b4565b80601f01602080910402602001604051908101604052809291908181526020018280546130ec906154b4565b80156131395780601f1061310e57610100808354040283529160200191613139565b820191906000526020600020905b81548152906001019060200180831161311c57829003601f168201915b505050505081526020016003820154815260200160048201805461315c906154b4565b80601f0160208091040260200160405190810160405280929190818152602001828054613188906154b4565b80156131d55780601f106131aa576101008083540402835291602001916131d5565b820191906000526020600020905b8154815290600101906020018083116131b857829003601f168201915b505050505081526020016005820180546131ee906154b4565b80601f016020809104026020016040519081016040528092919081815260200182805461321a906154b4565b80156132675780601f1061323c57610100808354040283529160200191613267565b820191906000526020600020905b81548152906001019060200180831161324a57829003601f168201915b505050505081526020016006820160009054906101000a900460ff16600381111561329557613294614bbe565b5b60038111156132a7576132a6614bbe565b5b8152505090506040518061024001604052808360000151815260200183602001518152602001836040015115158152602001836060015115158152602001836080015181526020018360a0015181526020018360c0015160048111156133105761330f614bbe565b5b60ff1681526020018360e0015181526020018361010001518152602001836101200151815260200183610140015181526020018361016001518152602001826020015181526020018260400151815260200182606001518152602001826080015181526020018260a0015181526020018260c00151600381111561339757613396614bbe565b5b60ff1681525092505050919050565b6000803373ffffffffffffffffffffffffffffffffffffffff1673ffffffffffffffffffffffffffffffffffffffff16815260200190815260200160002060040160009054906101000a900460ff16613434576040517f08c379a000000000000000000000000000000000000000000000000000000000815260040161342b90615531565b60405180910390fd5b6040518060400160405280600b81526020017f4449535452494255544f52000000000000000000000000000000000000000000815250805190602001206000803373ffffffffffffffffffffffffffffffffffffffff1673ffffffffffffffffffffffffffffffffffffffff1681526020019081526020016000206003016040516134bf91906155f0565b604051809103902014613507576040517f08c379a00000000000000000000000000000000000000000000000000000000081526004016134fe90615d70565b60405180910390fd5b60006005846040516135199190615787565b90815260200160405180910390206000018054613535906154b4565b905003613577576040517f08c379a000000000000000000000000000000000000000000000000000000000815260040161356e90615998565b60405180910390fd5b816005846040516135889190615787565b908152602001604051809103902060030190805190602001906135ac929190614043565b50806005846040516135be9190615787565b908152602001604051809103902060060190805190602001906135e2929190614043565b5060026005846040516135f59190615787565b908152602001604051809103902060050160006101000a81548160ff0219169083600481111561362857613627614bbe565b5b02179055507fdc8cabdb0e711a565797ff3869725802ae343d5694a86de295b52d016e5cd875838260405161365e929190615d90565b60405180910390a1505050565b6000803373ffffffffffffffffffffffffffffffffffffffff1673ffffffffffffffffffffffffffffffffffffffff16815260200190815260200160002060040160009054906101000a900460ff166136f9576040517f08c379a00000000000000000000000000000000000000000000000000000000081526004016136f090615531565b60405180910390fd5b6040518060400160405280600c81526020017f4d414e5546414354555245520000000000000000000000000000000000000000815250805190602001206000803373ffffffffffffffffffffffffffffffffffffffff1673ffffffffffffffffffffffffffffffffffffffff16815260200190815260200160002060030160405161378491906155f0565b6040518091039020146137cc576040517f08c379a00000000000000000000000000000000000000000000000000000000081526004016137c390615653565b60405180910390fd5b60006005856040516137de9190615787565b908152602001604051809103902060000180546137fa906154b4565b90500361383c576040517f08c379a000000000000000000000000000000000000000000000000000000000815260040161383390615998565b60405180910390fd5b600060058560405161384e9190615787565b90815260200160405180910390209050600015158160020160009054906101000a900460ff161515146138b6576040517f08c379a00000000000000000000000000000000000000000000000000000000081526004016138ad90615e39565b60405180910390fd5b838160080190805190602001906138ce929190614043565b50828160090190805190602001906138e7929190614043565b508181600a019080519060200190613900929190614043565b505050505050565b6000803373ffffffffffffffffffffffffffffffffffffffff1673ffffffffffffffffffffffffffffffffffffffff16815260200190815260200160002060040160009054906101000a900460ff16613996576040517f08c379a000000000000000000000000000000000000000000000000000000000815260040161398d90615531565b60405180910390fd5b6040518060400160405280600881526020017f535550504c494552000000000000000000000000000000000000000000000000815250805190602001206000803373ffffffffffffffffffffffffffffffffffffffff1673ffffffffffffffffffffffffffffffffffffffff168152602001908152602001600020600301604051613a2191906155f0565b604051809103902014613a69576040517f08c379a0000000000000000000000000000000000000000000000000000000008152600401613a6090615b90565b60405180910390fd5b600060046000815480929190613a7e90615898565b9190505590506040518060e0016040528082815260200187815260200186815260200185815260200184815260200183815260200160006003811115613ac757613ac6614bbe565b5b81525060036000838152602001908152602001600020600082015181600001556020820151816001019080519060200190613b03929190614043565b506040820151816002019080519060200190613b20929190614043565b50606082015181600301556080820151816004019080519060200190613b47929190614043565b5060a0820151816005019080519060200190613b64929190614043565b5060c08201518160060160006101000a81548160ff02191690836003811115613b9057613b8f614bbe565b5b02179055509050507f7a23a5b851464eed21d3c736305465084d182dea316b2ebb4af7877f237fcfa981878787604051613bcd9493929190615e59565b60405180910390a1505050505050565b6000803373ffffffffffffffffffffffffffffffffffffffff1673ffffffffffffffffffffffffffffffffffffffff16815260200190815260200160002060040160009054906101000a900460ff16613c6b576040517f08c379a0000000000000000000000000000000000000000000000000000000008152600401613c6290615531565b60405180910390fd5b6040518060400160405280600e81526020017f445255475f415554484f52495459000000000000000000000000000000000000815250805190602001206000803373ffffffffffffffffffffffffffffffffffffffff1673ffffffffffffffffffffffffffffffffffffffff168152602001908152602001600020600301604051613cf691906155f0565b604051809103902014613d3e576040517f08c379a0000000000000000000000000000000000000000000000000000000008152600401613d3590615ef8565b60405180910390fd5b6000600360008481526020019081526020016000206000015403613d97576040517f08c379a0000000000000000000000000000000000000000000000000000000008152600401613d8e906156bf565b60405180910390fd5b600060036000848152602001908152602001600020905081816005019080519060200190613dc6929190614043565b5060018160060160006101000a81548160ff02191690836003811115613def57613dee614bbe565b5b02179055507fa2ae6fc9300a36f66456683867ba4373496ffe1c9ccd65679a15b68d25e148c983604051613e239190614b04565b60405180910390a1505050565b600260008773ffffffffffffffffffffffffffffffffffffffff1673ffffffffffffffffffffffffffffffffffffffff16815260200190815260200160002060009054906101000a900460ff16613f3d576001869080600181540180825580915050600190039060005260206000200160009091909190916101000a81548173ffffffffffffffffffffffffffffffffffffffff021916908373ffffffffffffffffffffffffffffffffffffffff1602179055506001600260008873ffffffffffffffffffffffffffffffffffffffff1673ffffffffffffffffffffffffffffffffffffffff16815260200190815260200160002060006101000a81548160ff0219169083151502179055505b6040518060a001604052808681526020018581526020018481526020018381526020018215158152506000808873ffffffffffffffffffffffffffffffffffffffff1673ffffffffffffffffffffffffffffffffffffffff1681526020019081526020016000206000820151816000019080519060200190613fc0929190614043565b506020820151816001019080519060200190613fdd929190614043565b506040820151816002019080519060200190613ffa929190614043565b506060820151816003019080519060200190614017929190614043565b5060808201518160040160006101000a81548160ff021916908315150217905550905050505050505050565b82805461404f906154b4565b90600052602060002090601f01602090048101928261407157600085556140b8565b82601f1061408a57805160ff19168380011785556140b8565b828001600101855582156140b8579182015b828111156140b757825182559160200191906001019061409c565b5b5090506140c5919061421d565b5090565b6040518060c00160405280600073ffffffffffffffffffffffffffffffffffffffff168152602001606081526020016060815260200160608152602001606081526020016000151581525090565b508054614123906154b4565b6000825580601f106141355750614154565b601f016020900490600052602060002090810190614153919061421d565b5b50565b6040518060a00160405280606081526020016060815260200160608152602001606081526020016000151581525090565b60405180610240016040528060608152602001600081526020016000151581526020016000151581526020016060815260200160608152602001600060ff16815260200160608152602001606081526020016060815260200160608152602001606081526020016060815260200160608152602001600081526020016060815260200160608152602001600060ff1681525090565b5b8082111561423657600081600090555060010161421e565b5090565b6000604051905090565b600080fd5b600080fd5b600073ffffffffffffffffffffffffffffffffffffffff82169050919050565b60006142798261424e565b9050919050565b6142898161426e565b811461429457600080fd5b50565b6000813590506142a681614280565b92915050565b6000602082840312156142c2576142c1614244565b5b60006142d084828501614297565b91505092915050565b600081519050919050565b600082825260208201905092915050565b60005b838110156143135780820151818401526020810190506142f8565b83811115614322576000848401525b50505050565b6000601f19601f8301169050919050565b6000614344826142d9565b61434e81856142e4565b935061435e8185602086016142f5565b61436781614328565b840191505092915050565b60008115159050919050565b61438781614372565b82525050565b600060a08201905081810360008301526143a78188614339565b905081810360208301526143bb8187614339565b905081810360408301526143cf8186614339565b905081810360608301526143e38185614339565b90506143f2608083018461437e565b9695505050505050565b6000602082019050614411600083018461437e565b92915050565b6000819050919050565b61442a81614417565b811461443557600080fd5b50565b60008135905061444781614421565b92915050565b600080fd5b600080fd5b7f4e487b7100000000000000000000000000000000000000000000000000000000600052604160045260246000fd5b61448f82614328565b810181811067ffffffffffffffff821117156144ae576144ad614457565b5b80604052505050565b60006144c161423a565b90506144cd8282614486565b919050565b600067ffffffffffffffff8211156144ed576144ec614457565b5b6144f682614328565b9050602081019050919050565b82818337600083830152505050565b6000614525614520846144d2565b6144b7565b90508281526020810184848401111561454157614540614452565b5b61454c848285614503565b509392505050565b600082601f8301126145695761456861444d565b5b8135614579848260208601614512565b91505092915050565b600080600080600080600080610100898b0312156145a3576145a2614244565b5b60006145b18b828c01614438565b985050602089013567ffffffffffffffff8111156145d2576145d1614249565b5b6145de8b828c01614554565b975050604089013567ffffffffffffffff8111156145ff576145fe614249565b5b61460b8b828c01614554565b965050606089013567ffffffffffffffff81111561462c5761462b614249565b5b6146388b828c01614554565b955050608089013567ffffffffffffffff81111561465957614658614249565b5b6146658b828c01614554565b94505060a089013567ffffffffffffffff81111561468657614685614249565b5b6146928b828c01614554565b93505060c089013567ffffffffffffffff8111156146b3576146b2614249565b5b6146bf8b828c01614554565b92505060e089013567ffffffffffffffff8111156146e0576146df614249565b5b6146ec8b828c01614554565b9150509295985092959890939650565b600081519050919050565b600082825260208201905092915050565b6000819050602082019050919050565b6147318161426e565b82525050565b600082825260208201905092915050565b6000614753826142d9565b61475d8185614737565b935061476d8185602086016142f5565b61477681614328565b840191505092915050565b61478a81614372565b82525050565b600060c0830160008301516147a86000860182614728565b50602083015184820360208601526147c08282614748565b915050604083015184820360408601526147da8282614748565b915050606083015184820360608601526147f48282614748565b9150506080830151848203608086015261480e8282614748565b91505060a083015161482360a0860182614781565b508091505092915050565b600061483a8383614790565b905092915050565b6000602082019050919050565b600061485a826146fc565b6148648185614707565b93508360208202850161487685614718565b8060005b858110156148b25784840389528151614893858261482e565b945061489e83614842565b925060208a0199505060018101905061487a565b50829750879550505050505092915050565b600060208201905081810360008301526148de818461484f565b905092915050565b6000602082840312156148fc576148fb614244565b5b600082013567ffffffffffffffff81111561491a57614919614249565b5b61492684828501614554565b91505092915050565b60006020828403121561494557614944614244565b5b600061495384828501614438565b91505092915050565b6149658161426e565b82525050565b6000602082019050614980600083018461495c565b92915050565b600081519050919050565b600082825260208201905092915050565b6000819050602082019050919050565b600060a08301600083015184820360008601526149cf8282614748565b915050602083015184820360208601526149e98282614748565b91505060408301518482036040860152614a038282614748565b91505060608301518482036060860152614a1d8282614748565b9150506080830151614a326080860182614781565b508091505092915050565b6000614a4983836149b2565b905092915050565b6000602082019050919050565b6000614a6982614986565b614a738185614991565b935083602082028501614a85856149a2565b8060005b85811015614ac15784840389528151614aa28582614a3d565b9450614aad83614a51565b925060208a01995050600181019050614a89565b50829750879550505050505092915050565b60006020820190508181036000830152614aed8184614a5e565b905092915050565b614afe81614417565b82525050565b6000602082019050614b196000830184614af5565b92915050565b60008060008060808587031215614b3957614b38614244565b5b6000614b4787828801614438565b945050602085013567ffffffffffffffff811115614b6857614b67614249565b5b614b7487828801614554565b935050604085013567ffffffffffffffff811115614b9557614b94614249565b5b614ba187828801614554565b9250506060614bb287828801614438565b91505092959194509250565b7f4e487b7100000000000000000000000000000000000000000000000000000000600052602160045260246000fd5b60048110614bfe57614bfd614bbe565b5b50565b6000819050614c0f82614bed565b919050565b6000614c1f82614c01565b9050919050565b614c2f81614c14565b82525050565b600060e082019050614c4a600083018a614af5565b8181036020830152614c5c8189614339565b90508181036040830152614c708188614339565b9050614c7f6060830187614af5565b8181036080830152614c918186614339565b905081810360a0830152614ca58185614339565b9050614cb460c0830184614c26565b98975050505050505050565b60058110614ccd57600080fd5b50565b600081359050614cdf81614cc0565b92915050565b60008060408385031215614cfc57614cfb614244565b5b600083013567ffffffffffffffff811115614d1a57614d19614249565b5b614d2685828601614554565b9250506020614d3785828601614cd0565b9150509250929050565b60058110614d5257614d51614bbe565b5b50565b6000819050614d6382614d41565b919050565b6000614d7382614d55565b9050919050565b614d8381614d68565b82525050565b6000610180820190508181036000830152614da4818f614339565b9050614db3602083018e614af5565b614dc0604083018d61437e565b614dcd606083018c61437e565b8181036080830152614ddf818b614339565b905081810360a0830152614df3818a614339565b9050614e0260c0830189614d7a565b81810360e0830152614e148188614339565b9050818103610100830152614e298187614339565b9050818103610120830152614e3e8186614339565b9050818103610140830152614e538185614339565b9050818103610160830152614e688184614339565b90509d9c50505050505050505050505050565b614e8481614417565b82525050565b600060ff82169050919050565b614ea081614e8a565b82525050565b6000610240830160008301518482036000860152614ec48282614748565b9150506020830151614ed96020860182614e7b565b506040830151614eec6040860182614781565b506060830151614eff6060860182614781565b5060808301518482036080860152614f178282614748565b91505060a083015184820360a0860152614f318282614748565b91505060c0830151614f4660c0860182614e97565b5060e083015184820360e0860152614f5e8282614748565b915050610100830151848203610100860152614f7a8282614748565b915050610120830151848203610120860152614f968282614748565b915050610140830151848203610140860152614fb28282614748565b915050610160830151848203610160860152614fce8282614748565b915050610180830151848203610180860152614fea8282614748565b9150506101a08301518482036101a08601526150068282614748565b9150506101c083015161501d6101c0860182614e7b565b506101e08301518482036101e08601526150378282614748565b9150506102008301518482036102008601526150538282614748565b91505061022083015161506a610220860182614e97565b508091505092915050565b6000602082019050818103600083015261508f8184614ea6565b905092915050565b6000806000606084860312156150b0576150af614244565b5b600084013567ffffffffffffffff8111156150ce576150cd614249565b5b6150da86828701614554565b935050602084013567ffffffffffffffff8111156150fb576150fa614249565b5b61510786828701614554565b925050604084013567ffffffffffffffff81111561512857615127614249565b5b61513486828701614554565b9150509250925092565b6000806000806080858703121561515857615157614244565b5b600085013567ffffffffffffffff81111561517657615175614249565b5b61518287828801614554565b945050602085013567ffffffffffffffff8111156151a3576151a2614249565b5b6151af87828801614554565b935050604085013567ffffffffffffffff8111156151d0576151cf614249565b5b6151dc87828801614554565b925050606085013567ffffffffffffffff8111156151fd576151fc614249565b5b61520987828801614554565b91505092959194509250565b600080600080600060a0868803121561523157615230614244565b5b600086013567ffffffffffffffff81111561524f5761524e614249565b5b61525b88828901614554565b955050602086013567ffffffffffffffff81111561527c5761527b614249565b5b61528888828901614554565b945050604061529988828901614438565b935050606086013567ffffffffffffffff8111156152ba576152b9614249565b5b6152c688828901614554565b925050608086013567ffffffffffffffff8111156152e7576152e6614249565b5b6152f388828901614554565b9150509295509295909350565b6000806040838503121561531757615316614244565b5b600061532585828601614438565b925050602083013567ffffffffffffffff81111561534657615345614249565b5b61535285828601614554565b9150509250929050565b61536581614372565b811461537057600080fd5b50565b6000813590506153828161535c565b92915050565b60008060008060008060c087890312156153a5576153a4614244565b5b60006153b389828a01614297565b965050602087013567ffffffffffffffff8111156153d4576153d3614249565b5b6153e089828a01614554565b955050604087013567ffffffffffffffff81111561540157615400614249565b5b61540d89828a01614554565b945050606087013567ffffffffffffffff81111561542e5761542d614249565b5b61543a89828a01614554565b935050608087013567ffffffffffffffff81111561545b5761545a614249565b5b61546789828a01614554565b92505060a061547889828a01615373565b9150509295509295509295565b7f4e487b7100000000000000000000000000000000000000000000000000000000600052602260045260246000fd5b600060028204905060018216806154cc57607f821691505b6020821081036154df576154de615485565b5b50919050565b7f5061727469636970616e7420696e616374697665000000000000000000000000600082015250565b600061551b6014836142e4565b9150615526826154e5565b602082019050919050565b6000602082019050818103600083015261554a8161550e565b9050919050565b600081905092915050565b60008190508160005260206000209050919050565b6000815461557e816154b4565b6155888186615551565b945060018216600081146155a357600181146155b4576155e7565b60ff198316865281860193506155e7565b6155bd8561555c565b60005b838110156155df578154818901526001820191506020810190506155c0565b838801955050505b50505092915050565b60006155fc8284615571565b915081905092915050565b7f4f6e6c79204d414e55464143545552455220616c6c6f77656400000000000000600082015250565b600061563d6019836142e4565b915061564882615607565b602082019050919050565b6000602082019050818103600083015261566c81615630565b9050919050565b7f4261746368206e6f7420666f756e640000000000000000000000000000000000600082015250565b60006156a9600f836142e4565b91506156b482615673565b602082019050919050565b600060208201905081810360008301526156d88161569c565b9050919050565b7f4261746368206e6f7420617070726f7665642079657400000000000000000000600082015250565b60006157156016836142e4565b9150615720826156df565b602082019050919050565b6000602082019050818103600083015261574481615708565b9050919050565b600081905092915050565b6000615761826142d9565b61576b818561574b565b935061577b8185602086016142f5565b80840191505092915050565b60006157938284615756565b915081905092915050565b7f426f7820616c7265616479206578697374730000000000000000000000000000600082015250565b60006157d46012836142e4565b91506157df8261579e565b602082019050919050565b60006020820190508181036000830152615803816157c7565b9050919050565b600060408201905081810360008301526158248185614339565b90506158336020830184614af5565b9392505050565b7f4e487b7100000000000000000000000000000000000000000000000000000000600052603260045260246000fd5b7f4e487b7100000000000000000000000000000000000000000000000000000000600052601160045260246000fd5b60006158a382614417565b91507fffffffffffffffffffffffffffffffffffffffffffffffffffffffffffffffff82036158d5576158d4615869565b5b600182019050919050565b7f4f6e6c79205452414e53504f52545f494e53504543544f5220616c6c6f776564600082015250565b60006159166020836142e4565b9150615921826158e0565b602082019050919050565b6000602082019050818103600083015261594581615909565b9050919050565b7f426f78206e6f7420666f756e6400000000000000000000000000000000000000600082015250565b6000615982600d836142e4565b915061598d8261594c565b602082019050919050565b600060208201905081810360008301526159b181615975565b9050919050565b600060208201905081810360008301526159d28184614339565b905092915050565b7f43616e6e6f742064656c65746520616674657220617070726f76616c206f722060008201527f7472616e73697400000000000000000000000000000000000000000000000000602082015250565b6000615a366027836142e4565b9150615a41826159da565b604082019050919050565b60006020820190508181036000830152615a6581615a29565b9050919050565b7f4f6e6c7920535550504c4945522063616e2064656c6574650000000000000000600082015250565b6000615aa26018836142e4565b9150615aad82615a6c565b602082019050919050565b60006020820190508181036000830152615ad181615a95565b9050919050565b7f43616e6e6f742064656c65746520616674657220617070726f76616c00000000600082015250565b6000615b0e601c836142e4565b9150615b1982615ad8565b602082019050919050565b60006020820190508181036000830152615b3d81615b01565b9050919050565b7f4f6e6c7920535550504c49455220616c6c6f7765640000000000000000000000600082015250565b6000615b7a6015836142e4565b9150615b8582615b44565b602082019050919050565b60006020820190508181036000830152615ba981615b6d565b9050919050565b7f43616e6e6f742075706461746520616674657220617070726f76616c00000000600082015250565b6000615be6601c836142e4565b9150615bf182615bb0565b602082019050919050565b60006020820190508181036000830152615c1581615bd9565b9050919050565b7f4f6e6c7920504841524d41435920616c6c6f7765640000000000000000000000600082015250565b6000615c526015836142e4565b9150615c5d82615c1c565b602082019050919050565b60006020820190508181036000830152615c8181615c45565b9050919050565b60006040820190508181036000830152615ca28185614339565b9050615cb16020830184614d7a565b9392505050565b7f4f6e6c7920474d505f494e53504543544f5220616c6c6f776564000000000000600082015250565b6000615cee601a836142e4565b9150615cf982615cb8565b602082019050919050565b60006020820190508181036000830152615d1d81615ce1565b9050919050565b7f4f6e6c79204449535452494255544f5220616c6c6f7765640000000000000000600082015250565b6000615d5a6018836142e4565b9150615d6582615d24565b602082019050919050565b60006020820190508181036000830152615d8981615d4d565b9050919050565b60006040820190508181036000830152615daa8185614339565b90508181036020830152615dbe8184614339565b90509392505050565b7f43616e6e6f74207570646174652061667465722070726f64756374696f6e206160008201527f7070726f76616c00000000000000000000000000000000000000000000000000602082015250565b6000615e236027836142e4565b9150615e2e82615dc7565b604082019050919050565b60006020820190508181036000830152615e5281615e16565b9050919050565b6000608082019050615e6e6000830187614af5565b8181036020830152615e808186614339565b90508181036040830152615e948185614339565b9050615ea36060830184614af5565b95945050505050565b7f4f6e6c7920445255475f415554484f5249545920616c6c6f7765640000000000600082015250565b6000615ee2601b836142e4565b9150615eed82615eac565b602082019050919050565b60006020820190508181036000830152615f1181615ed5565b905091905056fea2646970667358221220df0d7596ed8c5d345a7a83e2663a34ab496fa32adb4ae1769083886b63d4cc1e64736f6c634300080d0033",
  "immutableReferences": {},
  "source": "// SPDX-License-Identifier: FIT\r\npragma solidity ^0.8.13;\r\n\r\ncontract PharmaSupplyChain {\r\n    enum BatchStatus { Created, ApprovedByDrugAuthority, ManufacturerProcessing, Processed }\r\n    enum MedicineBoxStatus { Created, Approved, InTransit, ArrivedAtPharmacy, Sold }\r\n\r\n    struct Participant {\r\n        string name;\r\n        string location;\r\n        string phone;\r\n        string role; // SUPPLIER, MANUFACTURER, DISTRIBUTOR, PHARMACY, DRUG_AUTHORITY, GMP_INSPECTOR, TRANSPORT_INSPECTOR\r\n        bool isActive;\r\n    }\r\n\r\n    struct ParticipantWithAddress {\r\n    address participantAddress;\r\n    string name;\r\n    string location;\r\n    string phone;\r\n    string role;\r\n    bool isActive;\r\n}\r\n\r\n    mapping(address => Participant) public participants;\r\n    address[] public participantAddresses;\r\n    mapping(address => bool) public participantRegistered;\r\n\r\n    function getAllParticipantsWithAddress() public view returns (ParticipantWithAddress[] memory) {\r\n    uint256 len = participantAddresses.length;\r\n    ParticipantWithAddress[] memory result = new ParticipantWithAddress[](len);\r\n    \r\n    for (uint256 i = 0; i < len; i++) {\r\n        address addr = participantAddresses[i];\r\n        Participant memory p = participants[addr];\r\n        result[i] = ParticipantWithAddress({\r\n            participantAddress: addr,\r\n            name: p.name,\r\n            location: p.location,\r\n            phone: p.phone,\r\n            role: p.role,\r\n            isActive: p.isActive\r\n        });\r\n    }\r\n\r\n    return result;\r\n}\r\n\r\n    function setParticipant(\r\n        address _participant,\r\n        string memory _name,\r\n        string memory _location,\r\n        string memory _phone,\r\n        string memory _role,\r\n        bool _isActive\r\n    ) public {\r\n        if (!participantRegistered[_participant]) {\r\n            participantAddresses.push(_participant);\r\n            participantRegistered[_participant] = true;\r\n        }\r\n        participants[_participant] = Participant(_name, _location, _phone, _role, _isActive);\r\n    }\r\n\r\n    function getParticipants() public view returns (Participant[] memory) {\r\n        uint256 len = participantAddresses.length;\r\n        Participant[] memory result = new Participant[](len);\r\n        for (uint256 i = 0; i < len; i++) {\r\n            result[i] = participants[participantAddresses[i]];\r\n        }\r\n        return result;\r\n    }\r\n\r\n    struct MedicineBatch {\r\n        uint256 batchId;\r\n        string batchName;\r\n        string productionDate;\r\n        uint256 quantity;\r\n        string supplier;\r\n        string approvedBy;\r\n        BatchStatus status;\r\n    }\r\n    mapping(uint256 => MedicineBatch) public medicineBatches;\r\n    uint256 public nextBatchId = 1;\r\n\r\n    struct MedicineBox {\r\n        string serialNumber;\r\n        uint256 batchId;\r\n        bool productionApproved;\r\n        bool transportApproved;\r\n        string distributor;\r\n        string pharmacyAddress;\r\n        MedicineBoxStatus status;\r\n        string owner;\r\n        string manufacturer;\r\n        string boxName;\r\n        string manufacturingDate;\r\n        string expirationDate;\r\n    }\r\n    mapping(string => MedicineBox) public medicineBoxes;\r\n\r\n    event MedicineBatchCreated(uint256 batchId, string batchName, string productionDate, uint256 quantity);\r\n    event MedicineBatchApproved(uint256 batchId);\r\n    event MedicineBoxCreated(string serialNumber, uint256 batchId);\r\n    event ProductionBoxApproved(string serialNumber);\r\n    event DistributorUpdated(string serialNumber, string distributor);\r\n    event TransportBoxApproved(string serialNumber);\r\n    event BoxStatusUpdated(string serialNumber, MedicineBoxStatus status);\r\n\r\n    function createMedicineBatch(\r\n        string memory _batchName,\r\n        string memory _productionDate,\r\n        uint256 _quantity,\r\n        string memory _supplier,\r\n        string memory _approvedBy\r\n    ) public {\r\n        require(participants[msg.sender].isActive, \"Participant inactive\");\r\n        require(\r\n            keccak256(bytes(participants[msg.sender].role)) == keccak256(bytes(\"SUPPLIER\")),\r\n            \"Only SUPPLIER allowed\"\r\n        );\r\n\r\n        uint256 currentBatchId = nextBatchId++;\r\n\r\n        medicineBatches[currentBatchId] = MedicineBatch({\r\n            batchId: currentBatchId,\r\n            batchName: _batchName,\r\n            productionDate: _productionDate,\r\n            quantity: _quantity,\r\n            supplier: _supplier,\r\n            approvedBy: _approvedBy,\r\n            status: BatchStatus.Created\r\n        });\r\n        emit MedicineBatchCreated(currentBatchId, _batchName, _productionDate, _quantity);\r\n    }\r\n\r\n    function updateMedicineBatch(\r\n        uint256 _batchId,\r\n        string memory _batchName,\r\n        string memory _productionDate,\r\n        uint256 _quantity\r\n    ) public {\r\n        require(participants[msg.sender].isActive, \"Participant inactive\");\r\n        require(\r\n            keccak256(bytes(participants[msg.sender].role)) == keccak256(bytes(\"SUPPLIER\")),\r\n            \"Only SUPPLIER allowed\"\r\n        );\r\n        require(medicineBatches[_batchId].batchId != 0, \"Batch not found\");\r\n\r\n        MedicineBatch storage batch = medicineBatches[_batchId];\r\n        require(batch.status == BatchStatus.Created, \"Cannot update after approval\");\r\n\r\n        batch.batchName = _batchName;\r\n        batch.productionDate = _productionDate;\r\n        batch.quantity = _quantity;\r\n    }\r\n\r\n    function deleteMedicineBatch(uint256 _batchId) public {\r\n    require(participants[msg.sender].isActive, \"Participant inactive\");\r\n    require(\r\n        keccak256(bytes(participants[msg.sender].role)) == keccak256(bytes(\"SUPPLIER\")),\r\n        \"Only SUPPLIER can delete\"\r\n    );\r\n    require(medicineBatches[_batchId].batchId != 0, \"Batch not found\");\r\n    require(medicineBatches[_batchId].status == BatchStatus.Created, \"Cannot delete after approval\");\r\n\r\n    delete medicineBatches[_batchId];\r\n}\r\n\r\n    function approveMedicineBatch(uint256 _batchId, string memory _approvedBy) public {\r\n        require(participants[msg.sender].isActive, \"Participant inactive\");\r\n        require(\r\n            keccak256(bytes(participants[msg.sender].role)) == keccak256(bytes(\"DRUG_AUTHORITY\")),\r\n            \"Only DRUG_AUTHORITY allowed\"\r\n        );\r\n        require(medicineBatches[_batchId].batchId != 0, \"Batch not found\");\r\n\r\n        MedicineBatch storage batch = medicineBatches[_batchId];\r\n        batch.approvedBy = _approvedBy;\r\n        batch.status = BatchStatus.ApprovedByDrugAuthority;\r\n        emit MedicineBatchApproved(_batchId);\r\n    }\r\n\r\n    function createMedicineBox(\r\n        uint256 _batchId,\r\n        string memory _serialNumber,\r\n        string memory _boxName,\r\n        string memory _manufacturingDate,\r\n        string memory _expirationDate,\r\n        string memory _manufacturer,\r\n        string memory _distributor,\r\n        string memory _pharmacyAddress\r\n    ) public {\r\n        require(participants[msg.sender].isActive, \"Participant inactive\");\r\n        require(\r\n            keccak256(bytes(participants[msg.sender].role)) == keccak256(bytes(\"MANUFACTURER\")),\r\n            \"Only MANUFACTURER allowed\"\r\n        );\r\n        require(medicineBatches[_batchId].batchId != 0, \"Batch not found\");\r\n        require(\r\n            medicineBatches[_batchId].status == BatchStatus.ApprovedByDrugAuthority,\r\n            \"Batch not approved yet\"\r\n        );\r\n        require(bytes(medicineBoxes[_serialNumber].serialNumber).length == 0, \"Box already exists\");\r\n\r\n        medicineBoxes[_serialNumber] = MedicineBox({\r\n            serialNumber: _serialNumber,\r\n            batchId: _batchId,\r\n            productionApproved: false,\r\n            transportApproved: false,\r\n            distributor: _distributor,\r\n            pharmacyAddress: _pharmacyAddress,\r\n            status: MedicineBoxStatus.Created,\r\n            owner: _manufacturer,\r\n            manufacturer: _manufacturer,\r\n            boxName: _boxName,\r\n            manufacturingDate: _manufacturingDate,\r\n            expirationDate: _expirationDate\r\n        });\r\n        emit MedicineBoxCreated(_serialNumber, _batchId);\r\n    }\r\n\r\n    function updateMedicineBox(\r\n    string memory _serialNumber,\r\n    string memory _boxName,\r\n    string memory _manufacturingDate,\r\n    string memory _expirationDate\r\n    ) public {\r\n        require(participants[msg.sender].isActive, \"Participant inactive\");\r\n        require(\r\n            keccak256(bytes(participants[msg.sender].role)) == keccak256(bytes(\"MANUFACTURER\")),\r\n            \"Only MANUFACTURER allowed\"\r\n        );\r\n        require(bytes(medicineBoxes[_serialNumber].serialNumber).length != 0, \"Box not found\");\r\n\r\n        MedicineBox storage box = medicineBoxes[_serialNumber];\r\n        require(box.productionApproved == false, \"Cannot update after production approval\");\r\n\r\n        box.boxName = _boxName;\r\n        box.manufacturingDate = _manufacturingDate;\r\n        box.expirationDate = _expirationDate;\r\n    }\r\n\r\n    function deleteMedicineBox(string memory _serialNumber) public {\r\n    require(participants[msg.sender].isActive, \"Participant inactive\");\r\n    require(\r\n        keccak256(bytes(participants[msg.sender].role)) == keccak256(bytes(\"MANUFACTURER\")),\r\n        \"Only MANUFACTURER allowed\"\r\n    );\r\n    require(bytes(medicineBoxes[_serialNumber].serialNumber).length != 0, \"Box not found\");\r\n    require(medicineBoxes[_serialNumber].status == MedicineBoxStatus.Created, \"Cannot delete after approval or transit\");\r\n\r\n    delete medicineBoxes[_serialNumber];\r\n}\r\n\r\n    function approveProductionBox(string memory _serialNumber) public {\r\n        require(participants[msg.sender].isActive, \"Participant inactive\");\r\n        require(\r\n            keccak256(bytes(participants[msg.sender].role)) == keccak256(bytes(\"GMP_INSPECTOR\")),\r\n            \"Only GMP_INSPECTOR allowed\"\r\n        );\r\n        require(bytes(medicineBoxes[_serialNumber].serialNumber).length != 0, \"Box not found\");\r\n\r\n        medicineBoxes[_serialNumber].productionApproved = true;\r\n        medicineBoxes[_serialNumber].status = MedicineBoxStatus.Approved;\r\n        emit ProductionBoxApproved(_serialNumber);\r\n    }\r\n\r\n    function updateDistributor(string memory _serialNumber, string memory _distributor, string memory _owner) public {\r\n        require(participants[msg.sender].isActive, \"Participant inactive\");\r\n        require(\r\n            keccak256(bytes(participants[msg.sender].role)) == keccak256(bytes(\"DISTRIBUTOR\")),\r\n            \"Only DISTRIBUTOR allowed\"\r\n        );\r\n        require(bytes(medicineBoxes[_serialNumber].serialNumber).length != 0, \"Box not found\");\r\n\r\n        medicineBoxes[_serialNumber].distributor = _distributor;\r\n        medicineBoxes[_serialNumber].owner = _owner;\r\n        medicineBoxes[_serialNumber].status = MedicineBoxStatus.InTransit;\r\n        emit DistributorUpdated(_serialNumber, _owner);\r\n    }\r\n\r\n    function approveTransportBox(string memory _serialNumber) public {\r\n        require(participants[msg.sender].isActive, \"Participant inactive\");\r\n        require(\r\n            keccak256(bytes(participants[msg.sender].role)) == keccak256(bytes(\"TRANSPORT_INSPECTOR\")),\r\n            \"Only TRANSPORT_INSPECTOR allowed\"\r\n        );\r\n        require(bytes(medicineBoxes[_serialNumber].serialNumber).length != 0, \"Box not found\");\r\n\r\n        medicineBoxes[_serialNumber].transportApproved = true;\r\n        emit TransportBoxApproved(_serialNumber);\r\n    }\r\n\r\n    function updateBoxStatusAtPharmacy(string memory _serialNumber, MedicineBoxStatus _newStatus) public {\r\n        require(participants[msg.sender].isActive, \"Participant inactive\");\r\n        require(\r\n            keccak256(bytes(participants[msg.sender].role)) == keccak256(bytes(\"PHARMACY\")),\r\n            \"Only PHARMACY allowed\"\r\n        );\r\n        require(bytes(medicineBoxes[_serialNumber].serialNumber).length != 0, \"Box not found\");\r\n\r\n        medicineBoxes[_serialNumber].status = _newStatus;\r\n        emit BoxStatusUpdated(_serialNumber, _newStatus);\r\n    }\r\n\r\n    struct MedicineBoxDetail {\r\n        string serialNumber;\r\n        uint256 batchId;\r\n        bool productionApproved;\r\n        bool transportApproved;\r\n        string distributor;\r\n        string pharmacyAddress;\r\n        uint8 boxStatus;\r\n        string owner;\r\n        string manufacturer;\r\n        string boxName;\r\n        string manufacturingDate;\r\n        string expirationDate;\r\n        string batchName;\r\n        string productionDate;\r\n        uint256 quantity;\r\n        string supplier;\r\n        string approvedBy;\r\n        uint8 batchStatus;\r\n    }\r\n\r\n    function getMedicineBoxDetails(string memory _serialNumber) public view returns (MedicineBoxDetail memory) {\r\n        MedicineBox memory box = medicineBoxes[_serialNumber];\r\n        require(bytes(box.serialNumber).length != 0, \"Box not found\");\r\n        MedicineBatch memory batch = medicineBatches[box.batchId];\r\n        return MedicineBoxDetail({\r\n            serialNumber: box.serialNumber,\r\n            batchId: box.batchId,\r\n            productionApproved: box.productionApproved,\r\n            transportApproved: box.transportApproved,\r\n            distributor: box.distributor,\r\n            pharmacyAddress: box.pharmacyAddress,\r\n            boxStatus: uint8(box.status),\r\n            owner: box.owner,\r\n            manufacturer: box.manufacturer,\r\n            boxName: box.boxName,\r\n            manufacturingDate: box.manufacturingDate,\r\n            expirationDate: box.expirationDate,\r\n            batchName: batch.batchName,\r\n            productionDate: batch.productionDate,\r\n            quantity: batch.quantity,\r\n            supplier: batch.supplier,\r\n            approvedBy: batch.approvedBy,\r\n            batchStatus: uint8(batch.status)\r\n        });\r\n    }\r\n}\r\n",
  "sourcePath": "D:\\HK2 (2024 - 2025)\\Blockchain\\project\\pharma-supply-chain\\contracts\\PharmaSupplyChain.sol",
  "compiler": {
    "name": "solc",
    "version": "0.8.13+commit.abaa5c0e.Emscripten.clang"
  },
  "schemaVersion": "3.4.7",
  "updatedAt": "2025-03-27T18:37:31.856Z",
  "networkType": "ethereum",
  "devdoc": {
    "kind": "dev",
    "methods": {},
    "version": 1
  },
  "userdoc": {
    "kind": "user",
    "methods": {},
    "version": 1
  }
}